:020000040800F2
:1000000020070020E5010008B1190008A91900081F
:10001000AD190008ED1600087D230008000000005F
:100020000000000000000000000000009D1B000810
:100030009118000800000000251A0008B11C0008F3
:10004000FF010008FF010008FF010008FF01000890
:10005000FF010008FF010008FF010008FF01000880
:10006000FF010008FF010008FF010008FF01000870
:10007000FF010008FF010008FF010008FF01000860
:10008000FF010008FF010008FF010008FF01000850
:10009000FF010008FF010008FF010008FF01000840
:1000A000FF010008FF010008FF010008FF01000830
:1000B000FF010008FF010008FF010008FF01000820
:1000C000FF010008FF010008FF010008FF01000810
:1000D000FF010008151D0008C51D0008791E000855
:1000E000FF010008FF010008FF010008FF010008F0
:1000F000FF010008FF010008FF010008FF010008E0
:10010000FF010008FF010008FF010008FF010008CF
:10011000FF010008FF010008FF010008FF010008BF
:10012000FF010008FF010008FF010008FF010008AF
:1001300000F002F800F047F80AA090E8000C8244B2
:100140008344AAF10107DA4501D100F03CF8AFF28F
:10015000090EBAE80F0013F0010F18BFFB1A43F0A5
:10016000010318475827000078270000103A24BFE1
:1001700078C878C1FAD8520724BF30C830C144BF0C
:1001800004680C607047000000230024002500264E
:10019000103A28BF78C1FBD8520728BF30C148BFEA
:1001A0000B607047662902F03D83002070471FB541
:1001B00000F09AFA04000020002102F063F9E060E8
:1001C0001FBD10B510BD00F0A7FB1146FFF7EFFFF4
:1001D00002F018F900F0C5FB03B4FFF7F2FF03BC0F
:1001E00000F008FC0948804709480047FEE7FEE7A1
:1001F000FEE7FEE7FEE7FEE7FEE7FEE7FEE7FEE7D7
:1002000004480549054A064B70470000B51C000824
:1002100031010008200100202007002020030020D9
:10022000200300200FB4044910B503AA029800F07F
:1002300049FA10BC5DF814FB200000202DE9F041C4
:100240000E460446002020622046E168884730B30D
:10025000252805D0D4E901219047206A401CF2E707
:10026000E168204600278847050018D0A5F1410025
:10027000192802D820354FF4006732462946204617
:100280002760FFF78FFF40B1012804D0F61D26F04C
:1002900007060836D8E7361DD6E72846DAE7206A8B
:1002A000BDE8F08170477047704770472DE9FF4FF8
:1002B0000C461E464FF0FF378BB0D2E90001DDF847
:1002C00060800A908A46C1F30A5505B93D4600216F
:1002D00008464FF00000BAF1000F00F4400005DAC4
:1002E00000EB80004FF4400101EA50004FEA9059C2
:1002F000B9F1010F00DDB9460A9850EA4A000ED064
:1003000044F61050A5F2FF3545432F14B8F1000F05
:100310001ED07542291E1EDDC9F100021CE0B8F195
:10032000010F4FF0000001D0302103E0F24305E05F
:100330002154401CB042FBDB3046002200212154F6
:100340000B99C1F80880C1E900200FB0BDE8F08F1B
:10035000BD1B6D1CDEE74A4600DA694206A800F0C4
:1003600065FA06AB93E8070003AB83E80700504645
:100370000A9900F046FB8DE80700A0F500501F38F1
:1003800000900398002D09DD42F21F014A460844FF
:1003900003A90390684600F0A5FD08E0A0F5005011
:1003A0004A461F3803A90390684600F0AFFD8DE868
:1003B00007000004000C03D04FF0FF30410800E0BC
:1003C0001046B8F1000F03D00022009215461EE03F
:1003D000751E05D400F08CF9303262556D1EF9D5CA
:1003E000B3460122084302D000227F1C04E020789B
:1003F000302801D100227F1E002A099786D01DE0F7
:10040000112D07DA00F074F9303262556D1C50EA94
:100410000102F5D1084302D00098C8B10EE00021D6
:10042000681E05E0235C625C63542254401E491C34
:100430008142F7DBAB46A81B401E0990002004F860
:100440000B000B98099AC0F80880C0E9002B7CE7E4
:1004500011264FF0000859E72DE9F04F8846044671
:10046000D21D22F0070191B0D1E90001CDE90A01C6
:1004700001F086FF02460B98C00F01D02D2007E047
:100480002068810701D52B2002E0202101EAC0006D
:10049000032A099001D0072A05DB0346414620467E
:1004A00000F084F90BE12078800601D5E06900E0D6
:1004B0000620B8F1650F814606D0B8F1660F18D056
:1004C000B8F1670F70D131E00020B9F1110F009041
:1004D00001DB112301E009F101030AAA01A90CA81B
:1004E000FFF7E4FEDDE90C70002609F10105834603
:1004F00047E001204B4600904FF000470AAA01A9AF
:100500000CA8FFF7D3FEDDE90DB00C995D4600267F
:1005100010B909F101000D18B9EB050003D4C0F1C1
:10052000FF3609F10105A5EB09002BE0B9F1010F38
:1005300001DA4FF001090020B9F1110F009048468F
:1005400001DD112300E003460AAA01A90CA8FFF768
:10055000ADFEDDE90C704D4600268346207800078D
:100560000AD4AB4500DA5D4601A8012D04DD41192E
:1005700011F8011C302907D04F4502DA17F1040F9A
:1005800004DA012082460FE06D1EEEE7002F02DC48
:10059000ED1B3E4403E0781CA84200DD7D1CB81B27
:1005A00000F1010A4FF000472078000703D4AA4564
:1005B00001DB4FF0FF3A0021B7F1004F0DF1430886
:1005C0008DF8431024D002202B23002F01DA7F4224
:1005D0002D230A21021EA0F1010000DC5FB197FB70
:1005E000F1FC97FBF1F201FB1C7C17460CF1300C7F
:1005F00008F801CDEEE7A8F1010003702188090594
:1006000001D5452100E06521A0F1010800F8011C99
:1006100009980FA9A1EB0807FF1D00B1012041199E
:1006200001EBEA70A1693844081A401EA0612078E5
:10063000C00602D42046AFF30080099828B1D4E95F
:1006400001219047206A401C20622078C00622D5F4
:100650002046AFF300801EE0002E04DBB34502DD30
:1006600001A8805D00E03020D4E901219047206A94
:10067000401C2062761CAAF101005FEA000A0AD140
:1006800000F032F8C0680168405CD4E9012190476D
:10069000206A401C2062281EA5F10105DCDC07E071
:1006A000D4E9012118F8010B9047206A401C206210
:1006B000381EA7F10107F3DC2046AFF300800320CA
:1006C00011B043E6074B70B50D467B4400F05BF874
:1006D0000446284600F018F910B14FF0FF3070BD05
:1006E000204670BD1F1D000000487047E00000203C
:1006F00030B5B0F10A024FEA900E71F100034EEAF4
:10070000817EB0EB0E0061EB91014FEA101E4EEAC4
:10071000017E10EB0E0041EB11114FEA102E4EEA54
:10072000016E10EB0E0041EB11214FEA104E4EEA24
:10073000014E10EB0E0041EB1141401841F1000158
:100740004FEAD00040EA41704FEAD10110EB80053A
:100750004FEA810444EA907444EB01046D1944EBC0
:100760000404521BA3414FF0000348BF0A3200D5D6
:1007700030BD401C41F1000130BD000001694A1C40
:1007800002610878704700B58FB0CDE901310021D2
:10079000059105497944CDE9031011466846FFF7F4
:1007A0004DFD0FB000BD0000E5FFFFFF2DE9F0415A
:1007B0001F46044603260168072A01F4006004DB93
:1007C00008B116A505E016A503E008B115A500E0DF
:1007D00015A521F010002060A069C01EA0610FB116
:1007E000401EA0612046AFF300804FB1D4E9012143
:1007F00038469047206A401C2062C01C206206E0F8
:10080000206AFAE7D4E9012115F8010B9047761E1A
:10081000F8D22046AFF30080BDE8F0814E414E0093
:100820006E616E00494E4600696E66002DE9F04724
:10083000814616468AB0334878440DC88DE80D00CD
:1008400030487844801C03AC0DC884E80D0041F6A4
:100850009B300844372190FBF1F290FBF1F5A5F1B4
:10086000800501FB12041B3C02D56442012000E01C
:100870000020DFF890A080460027FA44AAF1BE0AC3
:100880000DE0E00709D03246684607EB47010AEB66
:10089000810100F03BFB8DE8070064107F1C002CF9
:1008A000EFD1184F7F44AC3F18E0E80714D007EBB6
:1008B00004100DF1180A90E80E008AE80E00C068D6
:1008C000F04201D198190890324606A903A800F019
:1008D0001DFB03AB83E807006D10641C002DE4D101
:1008E00032466946B8F1000F03A802D000F0FAFAC8
:1008F00001E000F00BFBC9E90001C9F808200AB0CB
:10090000BDE8F08768200000007B00F080007047A1
:1009100000487047C00000207546FFF7F9FFAE465B
:1009200005006946534620F00700854618B020B5FB
:10093000FFF766FCBDE820404FF000064FF00007CF
:100940004FF000084FF0000B21F00701AC46ACE877
:10095000C009ACE8C009ACE8C009ACE8C0098D46E4
:10096000704710B50446AFF300802046BDE8104044
:10097000FFF732BC4FF0013C50F8042B51F8043B18
:100980009A4221D1A2EB0C03934313EACC1317D163
:1009900050F8042B51F8043B9A4215D1A2EB0C03FA
:1009A000934313EACC130BD150F8042B51F8043BBA
:1009B0009A4209D1A2EB0C03934313EACC13DBD088
:1009C0004FF00000704700BFD01A01BAB1FA81F1B0
:1009D00001F0180122FA01F0CB40C1F12001DBB295
:1009E000C0B2C01A2CFA01F3D11A914311EAC31113
:1009F000E6D1704701491820ABBEFEE72600020091
:100A000070475FEA400C08BF91F0000F4FEA8C235B
:100A10004FEAC12243EA51514FEA1C5018BF00F57A
:100A2000F0404FEA300018BF41F000415FEA6C5CD3
:100A300000F02980BCF1FF3F08BF40F080407047C4
:100A4000130C06BF12044FF0100C4FF0000C130EE5
:100A500004BF12020CF1080C130F04BF12010CF1B9
:100A6000040C930F04BF92000CF1020CD30F04BFCF
:100A700052000CF1010C11464FF00002A0F11F00D2
:100A8000A0EB0C00704711F0004F08BF704731F029
:100A900000413FF4D5AF0B0C06BF09044FF0100C1A
:100AA0004FF0000C0B0E04BF09020CF1080C0B0FE9
:100AB00004BF09010CF1040C8B0F04BF89000CF179
:100AC000020CCB0F04BF49000CF1010CCCF1200348
:100AD000A0EB0C0022FA03F302FA0CF241EA030144
:100AE00000F10100704720F07F4C80EA030023F002
:100AF0007F47ACEB070303F57C5300F0004003F1A4
:100B0000FF032DE980494FEA154B09B44FEA14431E
:100B100025EA0B4E24EA03480FF2042606EB1327BE
:100B200049083E785FEA320203FB0667C7F5000713
:100B300007FB06F64FEA54374FEAD64606F102069F
:100B400007FB066CCCF1005C4FEA1C472CEA074C13
:100B500007FB06F40CFB06F504EB15464FEA961668
:100B600034BF00204FF000404FEAD13706FB07FCAE
:100B70004FEA1C4C0CFB0BF7D21B03FB0CF761EB91
:100B800007010CFB0EF7B0EB074072EB17420CFBB2
:100B900008F734BFA2EB0742B2EB074261EB174103
:100BA0004FEA0C444FEA910706FB07FC4FEA1C4C46
:100BB0000CFB0BF7B0EBC74072EB573203FB0CF7A3
:100BC00034BFA2EBC742B2EBC74261EB57310CFB1B
:100BD0000EF7B0EBC70072EB57720CFB08F734BF8F
:100BE000A2EBC702B2EBC70261EB5771039F4FEA5A
:100BF000816141EA921104EBCC044FEAD1374FEA0C
:100C0000826206FB07FC42EA90124FEA80604FEADC
:100C10001C4C0CFB0BF7D21B03FB0CF761EB070121
:100C20000CFB0EF7B0EB074072EB17420CFB08F71A
:100C300034BFA2EB0742B2EB074261EB17414FEA28
:100C40008C554FEA910704EB9C2406FB07FC4FEA06
:100C50001C4C0CFB0BF7B0EBC74072EB573203FB9D
:100C60000CF734BFA2EBC742B2EBC74261EB57317E
:100C70000CFB0EF7B0EBC70072EB57720CFB08F7DA
:100C800034BFA2EBC702B2EBC70261EB577115EBA1
:100C90004C254FEA816141EA92114FEA82624FEAA4
:100CA000D13742EA901206FB07FC44F100044FEAF8
:100CB00080604FEA1C4C0CFB0BF7D21B03FB0CF7BC
:100CC00061EB07010CFB0EF7B0EB074072EB17422C
:100CD0000CFB08F734BFA2EB0742B2EB074261EB13
:100CE000174115EB1C154FEA813141EA92414FEA59
:100CF000823242EA90424FEA80304FEA0C7644F169
:100D0000000448EA03434EEA0B484FF0000EB2EBF2
:100D1000080C71EB030724BF624639464EEB0E0EFA
:100D20004FF0000B0018524149414BEB0B0BB2EB5B
:100D3000080C71EB03077BF1000B24BF62463946B8
:100D40004EEB0E0E4FF0000B0018524149414BEB99
:100D50000B0BB2EB080C71EB03077BF1000B24BF0C
:100D6000624639464EEB0E0E51EA020718BF46F0B6
:100D7000010616EB0E7655F1000254F1000103D581
:100D8000BDE88901BDE80088BDE88901BDE80048EB
:100D9000B619524141EB0101A3F101037047808074
:100DA0007F7E7D7C7B7A79787776767574737271C5
:100DB00071706F6E6E6D6C6C6B6A6A69686867667D
:100DC00066656464636362616160605F5F5E5E5D0F
:100DD0005D5C5C5B5B5A5A59595858575756565583
:100DE00055555454535352525251515050504F4FE5
:100DF0004F4E4E4D4D4D4C4C4C4B4B4B4A4A4A4935
:100E00004949484848474747474646464545454477
:100E10004444444343434342424242414141002B04
:100E200026D4770021D01CB54FEA370703B44FF022
:100E300010004FF010014FF000000FBCBDE8104053
:100E40000BF1010BBBF1010F08BF5FEA170722BFCF
:100E500012F1010211F101014FF0004143F10003D1
:100E600000F0004043EA00007047F9D35708DAE782
:100E700046EA064613F1400F4FEA16461FDD13F10E
:100E8000200FDFBF16430A46002120335B42C8D043
:100E9000C3F1200746EA064602FA07F74FEA16466C
:100EA00046EA0706C3F1200722FA03F201FA07F720
:100EB00021FA03F14FF0000342EA0702B1E746EAE4
:100EC000020646EA06464FEA164646EA0106BCBF57
:100ED00046EA0646360C4FF000034FF000024FF092
:100EE00000019EE72DE9C048934630B491E83800F0
:100EF00007C831EA400C48BF34EA430C03D5FFF77A
:100F0000F2FDFFF78CFFF0BCBDE800882DE9C0487A
:100F1000934630B491E8380007C810F0804F08BFFE
:100F200013F0804F03D100F005F8FFF778FFF0BC15
:100F3000BDE8008820F07F4780EA030023F07F4C63
:100F400007EB0C03A3F57C5300F00040A3F1FE0374
:100F500092F0000F00F0B38095F0000F00F0778062
:100F60002DE901494FEA11404FEA144621EA0048B1
:100F700000FB06FC24EA064708FB06F607FB08F818
:100F800000FB07F718EB06484CEB164C4FEA124BE8
:100F900018EB07484FEA15464CEB174022EA0B4E78
:100FA0000BFB06FC25EA06470EFB06F607FB0EFECA
:100FB0000BFB07F71EEB064E4CEB164C4FF00006F2
:100FC0001EEB074E4CEB174B18EB0B0840F10000E3
:100FD00018EB0E0B58EB000840F100008F1A4FF091
:100FE00000013CBFC943661B14BFB5EB040C0021D4
:100FF0003CBFC943F61B4FEA17444EEA8E0E27EA60
:1010000004454FEA1C4704FB07622CEA074C05FB2A
:1010100007F70CFB05F604FB0CFC16EB074642EB4E
:10102000174216EB0C4642EB1C421BEB060658EB34
:101030000202414146EA9E0601D5BDE80189B61982
:10104000524141EB0101A3F10103BDE801894FEADF
:1010500014454FEA114724EA054621EA074C05FBEF
:1010600007F406FB07F70CFB06F105FB0CFC11EB84
:10107000074144EB17444FEA124711EB0C4144EB94
:101080001C4422EA074C05FB07F206FB07F70CFBA2
:1010900006F605FB0CFC16EB074642EB174216EB77
:1010A0000C4642EB1C456A1854F1000148BF7047DA
:1010B000B619524141EB0101A3F10103704795F0CC
:1010C000000F37D04FEA11424FEA144721EA024697
:1010D00024EA074C02FB07F106FB07F70CFB06F4BA
:1010E00002FB0CFC14EB074441EB17414FEA154798
:1010F00014EB0C4441EB1C4125EA074C02FB07F5BD
:1011000006FB07F70CFB06F602FB0CFC16EB07468A
:1011100045EB174516EB0C4645EB1C42121951F1F5
:10112000000148BF7047B619524141EB0101A3F1DC
:10113000010370474FEA14454FEA114724EA054678
:1011400021EA074C05FB07F106FB07F70CFB06F24B
:101150004FF0000605FB0CFC12EB074241EB174178
:1011600012EB0C4251EB1C4148BF7047921841EB07
:101170000101A3F10103704721B1826842F001022D
:10118000826003E0826822F001028260704721B130
:10119000826842F48072826003E0826822F4807286
:1011A00082607047014600208A6802F004020AB19A
:1011B000012000E000207047014600208A6802F00C
:1011C00008020AB1012000E00020704710B5044673
:1011D00001220249042000F059F910BD0008014025
:1011E00010B5044601220249102000F04FF910BD4D
:1011F0000010014010B5044602220249102000F000
:1012000045F910BD0010014010B504460422024902
:10121000102000F03BF910BD0010014010B504464D
:1012200008220249102000F031F910BD00100140E1
:1012300010B504460A48844202D00A48844205D1C7
:1012400008220949102000F021F907E007488442EC
:1012500004D110220649802000F018F910BD0000CA
:10126000002401400028014000100140003C0140E2
:10127000001C014010B504460A48844202D00A48C6
:10128000844205D120220949102000F0FFF807E030
:101290000748844204D120220649802000F0F6F855
:1012A00010BD000000240140002801400010014052
:1012B000003C0140001C014010B5044602220249D6
:1012C000042000F0E3F810BD0008014010B504460A
:1012D00004220249104600F0D9F810BD0008014070
:1012E00010B5044608220249042000F0CFF810BDD2
:1012F0000008014010B504460A48844202D00A485A
:10130000844205D110220949042000F0BFF807E00B
:101310000748844204D140220649802000F0B6F8F4
:1013200010BD0000002401400028014000080140D9
:10133000003C0140001C014010B504460A488442AC
:1013400002D00A48844205D120220949042000F035
:101350009DF807E00748844204D1802206491046E0
:1013600000F094F810BD0000002401400028014066
:1013700000080140003C0140001C014010B504463B
:101380000A48844202D00A48844205D140220949D1
:10139000042000F07BF807E00748844204D182155E
:1013A0000649802000F072F810BD000000240140C2
:1013B0000028014000080140003C0140001C0140A1
:1013C00010B504460A48844202D00A48844205D136
:1013D00080220949042000F059F807E007488442B8
:1013E00004D142150649802000F050F810BD0000DD
:1013F000002401400028014000080140003C014059
:10140000001C014010B504460A48844202D00A4834
:10141000844205D101220949082000F037F807E08D
:101420000748844204D102150649802000F02EF8B6
:1014300010BD00000024014000280140000C0140C4
:10144000003C0140001C014010B504460A4884429B
:1014500002D00A48844205D102220949082000F03E
:1014600015F807E00748844204D108220649802085
:1014700000F00CF810BD00000024014000280140DD
:10148000000C0140003C0140001C0140F8B506463C
:101490000C4615460121304600F0F6FAADF8005032
:1014A00000208DF803006946204600F0F2F9F8BDEF
:1014B00030B502460020002350680F4C20400D79C3
:1014C0000C6844EA05242043506090680B4C20408F
:1014D000D1E902542C434D7944EA450420439060FD
:1014E000D06A20F470000C7C641EE4B2234340EA0E
:1014F0000350D06230BD0000FFFEF0FFFDF7F1FFAA
:10150000816841F008018160704721B1826842F42E
:10151000A002826003E0826822F4A0028260704729
:10152000816841F0040181607047000030B591B0DE
:1015300005460C461CB92846FFF748FE58E0012C2A
:1015400003D12846FFF7B8FE52E0022C03D128460B
:10155000FFF7BCFE4CE0032C03D12846FFF7C0FE8A
:1015600046E0042C03D12846FFF7C4FE40E0052CDA
:1015700003D12846FFF7E0FE3AE0062C03D12846C7
:10158000FFF7FCFE34E0072C03D12846FFF718FFD5
:101590002EE0082C03D12846FFF734FF28E0092C61
:1015A00003D12846FFF750FF22E00A2C03D128463A
:1015B000FFF716FE1CE00B2C03D12846FFF71AFE9E
:1015C00016E00C2C03D12846FFF71EFE10E00D2C70
:1015D00003D12846FFF722FE0AE00E2C03D128464D
:1015E000FFF726FE04E00F2C02D12846FFF742FE4B
:1015F0003948854204D10121401500F045FA0EE03A
:101600003648854204D10121001500F03DFA06E07C
:101610003348854203D10121C80300F035FA012186
:10162000084600F031FA0121084600F0FDF92D4886
:1016300000F06AF828484C3001902B4802900020B6
:101640000390012004900020059006904FF48070D4
:101650000790800008902020099000020A90002046
:101660000B9001A91F4800F0F5F801211D4800F07A
:101670003FF800200C9001208DF834008DF83500E3
:101680004FF460200E9000200F9001208DF8400054
:101690000CA92846FFF70CFF01212846FFF777FD2C
:1016A00001212846FFF768FD2846FFF729FF00BF04
:1016B0002846FFF781FD0028FAD12846FFF730FFC2
:1016C00000BF2846FFF76EFD0028FAD10121284609
:1016D000FFF71BFF11B030BD00240140002801407E
:1016E000003C0140080002401400002000BFFEE75B
:1016F00021B1026842F00102026004E002684FF684
:10170000FE731A400260704701684FF6FE72114086
:1017100001600021016041608160C1604B498842E5
:1017200008D14A490839496841F00F01474A083A47
:1017300051608AE045491431884208D1434908394B
:10174000496841F0F001414A083A51607DE03F4963
:101750002831884208D13D490839496841F470610F
:101760003A4A083A516070E038493C31884208D121
:1017700036490839496841F47041344A083A5160A1
:1017800063E032495031884208D13049083949680C
:1017900041F470212D4A083A516056E02B496431DA
:1017A000884208D129490839496841F47001274A1B
:1017B000083A516049E025497831884208D12349E7
:1017C0000839496841F07061204A083A51603CE0AC
:1017D0001F49884206D1011F096841F00F01021F0D
:1017E000116032E01A491431884208D11849091FA2
:1017F000096841F0F001164A121F116025E01449F2
:101800002831884208D11249091F096841F47061E2
:101810000F4A121F116018E00D493C31884208D16F
:101820000B49091F096841F47041094A121F1160F0
:101830000BE007495031884207D10549091F096863
:1018400041F47021024A121F1160704708000240E3
:101850000804024010B50022026847F6F0739A436C
:101860000C6A8B6823430C6923434C6923438C69BE
:101870002343CC6923434C6A23438C6A23431A4392
:101880000260CB6843600B6883604B68C36010BD27
:1018900070472DE9F0410246002500260020002374
:1018A0000024002791F803C00CF00F0591F803C045
:1018B0000CF0100CBCF1000F03D091F802C04CEA00
:1018C000050591F800C0BCF1000F31D0146800206C
:1018D0002BE04FF0010C0CFA00F3B1F800C00CEA59
:1018E00003069E4220D183004FF00F0C0CFA03F741
:1018F000BC4305FA03FC4CEA040491F803C0BCF1B4
:10190000280F06D14FF0010C0CFA00FCC2F814C0ED
:101910000AE091F803C0BCF1480F05D14FF0010C6B
:101920000CFA00FCC2F810C0401C0828D1D3146087
:10193000B1F800C0BCF1FF0F34DD546800202EE088
:1019400000F1080C4FF0010808FA0CF3B1F800C0E0
:101950000CEA03069E4221D183004FF00F0C0CFAD3
:1019600003F7BC4305FA03FC4CEA040491F803C0F6
:10197000BCF1280F05D100F1080C08FA0CF8C2F8E8
:10198000148091F803C0BCF1480F07D100F1080C96
:101990004FF0010808FA0CF8C2F81080401C082823
:1019A000CED35460BDE8F08100BFFEE700BFFEE784
:1019B0007047000070B5002100230F22C47804B3E3
:1019C000154C246804F4E064C4F5E064210AC1F114
:1019D0000403CA40447804FA03F184781440214394
:1019E00009010E4C0678A155047804F01F05012466
:1019F000AC4005786D11AD0005F1E025C5F800415A
:101A000009E0047804F01F050124AC40044D067879
:101A1000761145F8264070BD0CED00E000E400E0D2
:101A200080E100E07047000029B1064A5269024394
:101A3000044B5A6104E0034A52698243014B5A61E4
:101A4000704700000010024029B1064AD2690243E3
:101A5000044BDA6104E0034AD2698243014BDA6144
:101A6000704700000010024029B1064A1269024383
:101A7000044B1A6104E0034A12698243014B1A6164
:101A8000704700000010024029B1064A92690243E3
:101A9000044B9A6104E0034A92698243014B9A61C4
:101AA000704700000010024029B1064AD268024384
:101AB000044BDA6004E0034AD2688243014BDA60E7
:101AC000704700000010024030B5002100220024C1
:101AD00000232D4D6D6805F00C0121B1042905D0BE
:101AE000082923D105E0294D056022E0274D056036
:101AF0001FE0254D6D6805F47012234D6D6805F4E7
:101B00008034022505EB92421CB9214D55430560F6
:101B10000BE01D4D6D6805F400351DB11C4D55439E
:101B2000056002E0194D5543056002E0174D056060
:101B300000BF00BF144D6D6805F0F0010909154D97
:101B40006B5C0568DD4045600F4D6D6805F4E06134
:101B5000090A104D6B5C4568DD4085600A4D6D6873
:101B600005F46051C90A0B4D6B5C4568DD40C560EA
:101B7000054D6D6805F44041890B074D6B5CC568E8
:101B8000B5FBF3F5056130BD0010024000127A008C
:101B900000093D004C0000205C000020704710B59B
:101BA00000F002F810BD00000CB50020019000907C
:101BB0003348006840F480303149086000BF304845
:101BC000006800F4003000900198401C01900098DB
:101BD00018B90198B0F5A06FF1D12948006800F458
:101BE000003010B10120009001E00020009000982A
:101BF000012843D12348006840F0100021490860C3
:101C00000846006820F0030008600846006840F0BD
:101C1000020008601A484068194948600846406850
:101C200048600846406840F4806048600846406864
:101C300020F47C1048600846406840F4E810486092
:101C40000846006840F08070086000BF0C480068DB
:101C500000F000700028F9D00948406820F0030027
:101C6000074948600846406840F00200486000BFED
:101C70000348406800F00C000828F9D10CBD0000B2
:101C80000010024000200240042808D14FF0E0215B
:101C9000096941F004014FF0E022116107E04FF0C3
:101CA000E021096921F004014FF0E0221161704741
:101CB0007047000010B51348006840F0010011495A
:101CC000086008464068104908400E4948600846C8
:101CD00000680E4908400B4908600846006820F477
:101CE000802008600846406820F4FE0048604FF4F9
:101CF0001F008860FFF753FF4FF000600449086041
:101D000010BD0000001002400000FFF8FFFFF6FECB
:101D100008ED00E010B540F22551064800F091F9B9
:101D200030B10448001D0088C1B2034800F0FCF93E
:101D300010BD0000003801402400002010B504460A
:101D4000E4B901210520FFF79FFE01218803FFF779
:101D50009BFE4FF40070184908801820C8700320BB
:101D600088701648FFF795FD4FF48060124908808F
:101D70000420C8701148FFF78CFD1BE0012C19D11D
:101D800001210820FFF780FE01218803FFF77CFE78
:101D90004020094908801820C8700320887008482E
:101DA000FFF777FD8020044908800420C8700448AC
:101DB000FFF76FFD10BD0000480000200008014043
:101DC000000C014010B540F22551064800F039F9E9
:101DD00030B10448001D0088C1B2034800F0A4F9E6
:101DE00010BD0000004400403000002010B5044643
:101DF00001214804FFF728FE022C1AD101210420FA
:101E0000FFF742FE01214804FFF71EFE0420174998
:101E100008801820C870032088701548FFF739FD26
:101E20000820124908800420C8701148FFF731FDCE
:101E30001BE0032C19D101212020FFF725FE0121F1
:101E40004804FFF701FE2020084908801820C870C8
:101E5000032088700748FFF71CFD402003490880D5
:101E60000420C8700348FFF714FD10BD480000208F
:101E7000000801400014014010B540F22551064809
:101E800000F0DFF830B10448001D0088C1B20348FB
:101E900000F04AF910BD0000004800403C0000205E
:101EA00010B5044601218804FFF7CEFD042C1AD199
:101EB00001210820FFF7E8FD01218804FFF7E4FD78
:101EC0002002284908801820C870032088702648FE
:101ED000FFF7DFFC6002234908800420C870224815
:101EE000FFF7D7FC3CE0052C1CD101211020FFF7A7
:101EF000CBFD01218804FFF7C7FD4FF4806019492D
:101F000008801820C870032088701848FFF7C1FCAB
:101F10004FF40060134908800420C8701348FFF78D
:101F2000B8FC1DE0062C1BD101212020FFF7ACFDE1
:101F300001218804FFF7A8FD4FF48070094908804B
:101F40001820C870032088700948FFF7A2FC4FF4DE
:101F50000070044908800420C8700548FFF799FC08
:101F600010BD000048000020000C0140001001409E
:101F70000014014021B1828942F40052828104E0C0
:101F800082894DF6FF731A408281704710B504466E
:101F90002048844209D101218803FFF785FD0021F3
:101FA0004FF48040FFF780FD32E01B48844209D1A6
:101FB00001214804FFF758FD00214FF40030FFF7DE
:101FC00053FD25E01548844209D101218804FFF71B
:101FD0004BFD00214FF48020FFF746FD18E010482C
:101FE000844209D10121C804FFF73EFD00214FF4CE
:101FF0000020FFF739FD0BE00A48844208D1012197
:102000000805FFF731FD00214FF48010FFF72CFD8C
:1020100010BD00000038014000440040004800406E
:10202000004C00400050004002460020B1F5007F07
:1020300000D100BF13880B400BB1012000E000204D
:10204000704770B50246002400230025002040F6AA
:102050006A16B14200D100BFC1F3421501F01F035F
:10206000012606FA03F3012D02D19689334006E0DA
:10207000022D02D1168A334001E0968A33400C12B9
:10208000012606FA04F41688344013B10CB101207D
:1020900000E0002070BD30B504460025204600F069
:1020A00029F80346D88800280EDD58899988884287
:1020B00001D1002058815989186845565889401C1B
:1020C0005881D888401ED880E8B230BD0146064A03
:1020D000914200D10020054A914200D10120044ADA
:1020E000914200D102207047003801400044004076
:1020F000004800400146064A914200D10548064A80
:10210000914200D10548064A914200D105487047E6
:10211000003801402400002000440040300000202E
:10212000004800403C00002010B5C28883889A42D5
:102130000FDA028983889A4201D1002202814AB2D1
:10214000048903681A550289521C0281C288521CF4
:10215000C28010BDF0B503460024002600250020F3
:1021600040F66A17B94200D100BF1846C1F34214C5
:1021700001F01F06012707FA06F5012C01D10C30EA
:1021800004E0022C01D1103000E014301AB10768CD
:102190002F43076002E00768AF430760F0BD00000F
:1021A0002DE9F04786B005460E460024A24600BF42
:1021B000A1460027B08900B100BF2F462C8A4CF6FB
:1021C000FF700440F08804432C82AC894EF6F31073
:1021D0000440B08831890843718908430443AC81C5
:1021E000AC8A4FF6FF400440B0890443AC8201A89A
:1021F000FFF76AFC1F48874202D1DDF810A001E01A
:10220000DDF80CA0A88900F4004040B10AEBCA0038
:1022100000EB0A1031684900B0FBF1F807E00AEB67
:10222000CA0000EB0A1031688900B0FBF1F86420A5
:10223000B8FBF0F004012009642101FB1089A88992
:1022400000F4004040B1322000EBC900B0FBF1F0D7
:1022500000F00700044308E0322000EB091064217D
:10226000B0FBF1F000F00F0004432C8106B0BDE894
:10227000F08700000038014013B5044600BF8021FC
:102280002046FFF7D1FE0028F9D09DF80400A08079
:102290001CBD000070B586B004460D461646029679
:1022A0003348844212D12846FFF748FD25208DF897
:1022B00004000020ADF814000C20ADF8120000203E
:1022C000ADF81000ADF80E00ADF80C0029488442BE
:1022D00012D12846FFF78AFD26208DF80400002041
:1022E000ADF814000C20ADF812000020ADF810007D
:1022F000ADF80E00ADF80C001F48844212D12846FC
:10230000FFF7CEFD27208DF804000020ADF8140063
:102310000C20ADF812000020ADF81000ADF80E0052
:10232000ADF80C0000212046FFF724FE2046FFF701
:102330002DFE02A92046FFF733FF01212046FFF7BB
:1023400019FE012240F225512046FFF703FF01202C
:102350008DF8070000208DF805002046FFF7B6FE37
:102360008DF8060001A8FFF725FB06B070BD000040
:1023700000380140004400400048004000BFFEE734
:10238000490050EAC12018BF04204A0D18BF40F090
:10239000010040F2FF72B2EB515F08BF40F0020053
:1023A000012808BF0520704710B56FF00400FFF743
:1023B0006BFC0A4800680A49B0FBF1F00949087053
:1023C0000846007800EB4001C1EBC0104FF6FF71EA
:1023D00001EAC0000449088010BD00000000002090
:1023E00000127A001A0000201C00002070B504467C
:1023F0000D46E1B20248FFF73FFF204670BD0000E6
:1024000000380140002400BFA146FFF7CDFF4FF484
:10241000E13200211648FFF73DFF00211548FFF784
:1024200085F823E01248FFF736FE04461CB121462A
:102430000F48FFF721FF1048008800F095F9824609
:1024400000F066F907464FF066320C4B00F062F878
:10245000054600F02DF8814600BF484600F058F9C7
:1024600005462A460B4606A0FDF7DCFEDAE700002B
:1024700000380140002401401400002066664A3FF5
:1024800025660A0010B500290AD00878002807D070
:1024900005487844FEF76EFA002801D0002010BDF0
:1024A0000248784410BD00004A04000042040000C5
:1024B00021F00042A2F16052B2F5801F01F000430A
:1024C00028BFD2F17F6C0BD95FEA001C43EAC2023D
:1024D00042EB507018BF704728BF20F001007047D2
:1024E000B2F5801FBCBF184670474FEA410C1CF57F
:1024F000001F02D2084600F090B970B500F0B4F8A1
:1025000000000089FFF7F6BF4FF00040A0F5800003
:1025100070470000DFF848C170B51CEA111E1EBFED
:102520001CEA13159EEA0C0F95EA0C0F00F06F8061
:1025300081EA030423EA4C134EEAD47E21EA4C11CB
:1025400041F4801143F48013AE44A1FB024CA0FB84
:102550000365AEF17F7E361955EB0C05A1FB034CEC
:102560004CF10003A0FB021C16EB0C06654153F175
:102570000003094218BF46F0010613F4007F0BD197
:102580004FEA03314FEA0530340341EA155140EA7E
:1025900016506FF003020AE04FEAC3214FEAC5204C
:1025A000F40241EA555140EA56506FF0020202EB44
:1025B0002E4201EB025585EACE710AD05FEA440C47
:1025C00018BF24F0004450F1000041F1000120EA5E
:1025D000D47040F2FE7C624500D270BDA84214BFA8
:1025E0004FF080444FF04044002E08BF0024BEF15D
:1025F000806FA8BFA1F1C041BDE8704080F2828029
:102600004FF0000001F1C04101F0004170479EEA27
:102610000C0F0CEA131518BF95EA0C0F06D04FF0FB
:10262000000081EA030E0EF0004170BD00F01CF8BE
:102630008900013E00F007B800F009B84FEA430CEA
:102640005FEA5C5C08D081EA030100F05BB84FEA06
:10265000410C5FEA5C5CF6D14FF000000149704725
:102660000000FF070000F87F0EF1020E2EF0030EAF
:102670005EF8046B364205D4012A43EB030515F5D9
:10268000001F12D8012841EB010C1CF5001F0CD8CB
:102690000ED14FEAD17C15F5001F0CEB4C0C0CF160
:1026A000020C08BF4CEBD37C04E04FF0080C01E0B7
:1026B0004FEAD37C0CEB4C0526FA05F606F007062C
:1026C000B6F1040C06D20EEB860CBDE870404CF05F
:1026D000010C6047DFE80CF0090B02024FF00041EB
:1026E0004FF00000A1F5002170BD194610460128E9
:1026F00051EB010418BFD4F5001484BF002001F091
:10270000004170BD0808A0F500114FEA3101704783
:1027100043004FEAD30C4FEA3C0C43401FBF400735
:102720000CF1605113F0FE4F70471CF0006F03D1A5
:1027300000200CF0004170470CF0004343EA507059
:1027400010B540EACC0000F022F800BF0000009273
:102750004FEA0001FFF7D6BF4FF000414FF00000F5
:10276000A1F5002170470000B0FA80F310FA03F2DF
:10277000C3F19D030AD0D90501EB1220530638BFDF
:10278000704700F1010008BF20F0010070470EF112
:10279000020E2EF0030E5EF8044B244204D44FEADE
:1027A0004102B2F17F4F11D84FEA4003B3F17F4F9E
:1027B0000CD80ED14FEAD07CB2F17F4F0CEB4C0C11
:1027C0000CF1020C08BF4CEBD17C04E04FF0080C7C
:1027D00001E04FEAD17C0CEB4C0324FA03F404F043
:1027E0000704B4F1040C06D20EEB840CBDE81040D3
:1027F0004CF0010C6047DFE80CF0070802024FF0D4
:102800000040A0F5800010BD0846420018BFD2F17C
:10281000807288BF00F0004010BDFF2141EAD05017
:10282000C0057047FDF718BE02400000000000A080
:102830000000000005400000000000C8000000008B
:102840000C4000000000409C000000001940000007
:102850000020BCBE0000000034400000BFC91B8E39
:1028600000000004B5400000504BCFD06607E2CF17
:10287000010000006C4100003E8251AADFEEA73447
:1028800001000000D9420000DCB5A0E23A301F97F9
:10289000FFFFFFFFB4450000FD25A0C8E9A3C14F1D
:1028A000FFFFFFFFFF3F000000000080000000006E
:1028B000FF3F00000000008000000000F828000832
:1028C00000000020600000006C010008582900088A
:1028D00060000020C0060000880100081C00000005
:1028E00043000000F8FFFFFF0C0000000E00000096
:1028F0000F0000002E00000000A24A0400000000AB
:10290000000000000102030406070809000000009F
:102910000000000000000000000000006000002037
:1029200020000000000000008000002020000000C7
:1029300000000000A00000202000000000000000B7
:102940000000000000000000010203040102030473
:0829500006070809020406084D
:0400000508000131BD
:00000001FF
