:020000040800F2
:1000000050070020CD010008F10600089D060008F9
:10001000ED0600087D020008E70900080000000066
:100020000000000000000000000000008907000838
:100030008102000800000000650700089D08000814
:10004000E7010008E7010008E7010008E7010008F0
:10005000E7010008E7010008E7010008E7010008E0
:10006000E7010008E7010008E7010008E7010008D0
:10007000E7010008E7010008E7010008E7010008C0
:10008000E7010008E7010008E7010008E7010008B0
:10009000E7010008E7010008E70100088502000801
:1000A000E7010008E7010008E7010008E701000890
:1000B000E7010008E7010008E7010008E701000880
:1000C000E7010008E7010008E7010008E701000870
:1000D000E701000801090008E7010008E70100083E
:1000E000E7010008E7010008E7010008E701000850
:1000F000E7010008E7010008E7010008E701000840
:10010000E7010008E7010008E7010008E70100082F
:10011000E7010008E7010008E7010008E70100081F
:10012000E7010008E7010008E7010008E70100080F
:1001300000F002F800F03AF80AA090E8000C8244BF
:100140008344AAF10107DA4501D100F02FF8AFF29C
:10015000090EBAE80F0013F0010F18BFFB1A43F0A5
:10016000010318474409000064090000103A24BF45
:1001700078C878C1FAD8520724BF30C830C144BF0C
:1001800004680C607047000000230024002500264E
:10019000103A28BF78C1FBD8520728BF30C148BFEA
:1001A0000B6070471FB51FBD10B510BD00F033F8D0
:1001B0001146FFF7F7FF00F063FC00F051F803B4BD
:1001C000FFF7F2FF03BC00F010FC00000948804775
:1001D00009480047FEE7FEE7FEE7FEE7FEE7FEE729
:1001E000FEE7FEE7FEE7FEE704480549054A064B41
:1001F00070470000A10800083101000850010020EC
:100200005007002050030020500300207047704723
:10021000704770477047754600F02CF8AE460500F1
:100220006946534620F00700854618B020B5FFF711
:10023000DBFFBDE820404FF000064FF000074FF015
:1002400000084FF0000B21F00701AC46ACE8C009F4
:10025000ACE8C009ACE8C009ACE8C0098D467047FD
:1002600010B50446AFF300802046BDE81040FFF70C
:10027000A6BF000000487047EC00002000BFFEE76A
:100280007047000010B50A2000F0D4FB2021074879
:1002900000F0F9F920B906480078401C04490870BC
:1002A0004FF4787000F006F810BD0000000C01401B
:1002B0001400002001490860704700001404014048
:1002C000002123498279002A3AD00A46126803683D
:1002D0009A430B461A600A1D126803689A430B1D65
:1002E0001A60027911440A6803681A430A60184ABE
:1002F0000832126803689A43154B08331A601A1DB6
:10030000126803689A43124B0C331A604279102A20
:100310000ED11A1F126803681A430D4B08331A6076
:100320001A1D126803681A43094B0C331A600DE05A
:100330000749427911440A6803681A430A6005E0D4
:10034000027911440A6803689A430A607047000002
:10035000000401402DE9FF470646894692460121E7
:10036000084600F001FA6B48864203D104274FF09B
:10037000000828E06848864203D108274FF00108AA
:1003800021E06648864203D110274FF002081AE0A8
:100390006348864203D120274FF0030813E06148E9
:1003A000864203D140274FF004080CE05E488642A5
:1003B00003D180274FF0050805E05C48864202D152
:1003C00087154FF00608B9F5807F4BD01ADCB9F1DC
:1003D000100F3BD00CDCB9F1010F2BD0B9F1020F9B
:1003E0002BD0B9F1040F2BD0B9F1080F52D12AE06C
:1003F000B9F1200F2DD0B9F1400F2DD0B9F1800FF8
:1004000048D12CE0B9F5805F38D009DCB9F5007F20
:100410002BD0B9F5806F2BD0B9F5006F3AD12AE017
:10042000B9F5005F2DD0B9F5804F2DD0B9F5004F4B
:1004300030D12CE0002406252DE0012407252AE0F8
:100440000224082527E00324092524E004240A25A2
:1004500021E0052417251EE0062417251BE00724AC
:10046000172518E00824172515E00924172512E0A0
:100470000A2428250FE00B2428250CE00C2428252D
:1004800009E00D24282506E00E24282503E00F248A
:10049000282500E000BF00BF0121384600F064F9C4
:1004A000ADF80C9003208DF80E00BAF10C0F03D1BB
:1004B00048208DF80F0009E0BAF1080F03D1282079
:1004C0008DF80F0002E004208DF80F0003A93046DC
:1004D00000F04EF82146404600F02AF8CDF804908E
:1004E00001208DF80A0000208DF808008DF809A081
:1004F00001A8FFF7E5FE8DF800500A208DF80100F5
:100500008DF8024001208DF80300684600F0F2F8F3
:10051000BDE8FF8700080140000C014000100140C9
:100520000014014000180140001C0140002001405F
:1005300030B500228B071C0F0F2303FA04F20B4B7C
:100540008C1053F824309343084C8D1044F8253018
:1005500023468C1053F824308C07240F00FA04F43F
:100560002343024C8D1044F8253030BD0800014073
:100570002DE9F0410246002500260020002300243A
:10058000002791F803C00CF00F0591F803C00CF0A0
:10059000100CBCF1000F03D091F802C04CEA050525
:1005A00091F800C0BCF1000F31D0146800202BE09E
:1005B0004FF0010C0CFA00F3B1F800C00CEA03068E
:1005C0009E4220D183004FF00F0C0CFA03F7BC437E
:1005D00005FA03FC4CEA040491F803C0BCF1280FAF
:1005E00006D14FF0010C0CFA00FCC2F814C00AE06E
:1005F00091F803C0BCF1480F05D14FF0010C0CFA83
:1006000000FCC2F810C0401C0828D1D31460B1F817
:1006100000C0BCF1FF0F34DD546800202EE000F173
:10062000080C4FF0010808FA0CF3B1F800C00CEA0E
:1006300003069E4221D183004FF00F0C0CFA03F702
:10064000BC4305FA03FC4CEA040491F803C0BCF176
:10065000280F05D100F1080C08FA0CF8C2F8148034
:1006600091F803C0BCF1480F07D100F1080C4FF01E
:10067000010808FA0CF8C2F81080401C0828CED3F4
:100680005460BDE8F0810246002093680B400BB136
:10069000012000E0002070474161704700BFFEE785
:1006A00008B50121482000F05FF82020ADF80000D7
:1006B00010208DF8030003208DF8020069460948D8
:1006C000FFF756FF20210748FFF7E6FF2020ADF88F
:1006D000000069460448FFF74BFF20210248FFF75E
:1006E000DBFF08BD000C01400018014000BFFEE721
:1006F0007047000070B5002100230F22C47804B3B6
:10070000154C246804F4E064C4F5E064210AC1F1E6
:100710000403CA40447804FA03F184781440214366
:1007200009010E4C0678A155047804F01F05012438
:10073000AC4005786D11AD0005F1E025C5F800412C
:1007400009E0047804F01F050124AC40044D06784C
:10075000761145F8264070BD0CED00E000E400E0A5
:1007600080E100E07047000029B1064A9269024327
:10077000044B9A6104E0034A92698243014B9A61F7
:100780007047000000100240704710B500F002F8FA
:1007900010BD00000CB500200190009033480068A7
:1007A00040F480303149086000BF3048006800F4F0
:1007B000003000900198401C0190009818B90198F1
:1007C000B0F5A06FF1D12948006800F4003010B1F5
:1007D0000120009001E0002000900098012843D102
:1007E0002348006840F0100021490860084600686E
:1007F00020F0030008600846006840F0020008602E
:100800001A484068194948600846406848600846E8
:10081000406840F4806048600846406820F47C10DE
:1008200048600846406840F4E810486008460068A0
:1008300040F08070086000BF0C48006800F0007055
:100840000028F9D00948406820F0030007494860B3
:100850000846406840F00200486000BF0348406816
:1008600000F00C000828F9D10CBD00000010024077
:1008700000200240042808D14FF0E021096941F02E
:1008800004014FF0E022116107E04FF0E021096917
:1008900021F004014FF0E022116170477047000021
:1008A00010B51348006840F001001149086008467F
:1008B0004068104908400E494860084600680E49E3
:1008C00008400B4908600846006820F48020086052
:1008D0000846406820F4FE0048604FF41F0088601E
:1008E000FFF753FF4FF000600449086010BD00009F
:1008F000001002400000FFF8FFFFF6FE08ED00E0E8
:1009000010B540F225511D4800F03EF810B31B48C9
:1009100000F064F8C4B21A48008800F40040C8B976
:100920001748008800F4804060B10A2C03D00020F2
:100930001349088020E01248008840F40040104924
:10094000088019E00D2C06D10D48008840F4804045
:100950000B49088010E00A480088C0F30D000949DF
:100960000C5407480088401C054908800846008848
:10097000C72801DD0020088010BD000000380140BC
:10098000200000202400002070B50246002400232F
:100990000025002040F66A16B14200D100BFC1F325
:1009A000421501F01F03012606FA03F3012D02D1BF
:1009B0009689334006E0022D02D1168A334001E0C9
:1009C000968A33400C12012606FA04F41688344045
:1009D00013B10CB1012000E0002070BD01468888F1
:1009E000C0F30800704700BFFEE7014600BF704734
:1009F00010B56FF00400FFF73DFF0A4800680A4990
:100A0000B0FBF1F0094908700846007800EB40019E
:100A1000C1EBC0104FF6FF7101EAC0000449088025
:100A200010BD00000000002000127A001600002017
:100A3000180000200146114A12884A434FF0E02373
:100A40005A6100229A611A46126942F001021A6143
:100A500000BF4FF0E022106900F001021AB100F46B
:100A60008032002AF5D04FF0E022126922F0010214
:100A70004FF0E0231A6100229A61704718000020AD
:100A8000FFF70EFE082220210548FFF763FC0C2229
:100A900020210448FFF75EFCFFF7AAFF00BFFEE736
:100AA00000080140000C0140C80A000800000020B6
:100AB000240000006C010008EC0A0008240000205B
:100AC0002C0700008801000800A24A040000000072
:100AD00000000000010203040607080900000000EE
:0C0AE0000000000000000000000000000A
:0400000508000131BD
:00000001FF
