:020000040800F2
:1000000028070020D5010008E1080008B70500080E
:10001000DD08000893040008AD120008000000008D
:10002000000000000000000000000000370B000886
:100030009F0400080000000055090008490C000852
:10004000EF010008EF010008EF010008EF010008D0
:10005000EF010008EF010008EF010008EF010008C0
:10006000EF010008EF010008EF010008EF010008B0
:10007000EF010008EF010008EF010008EF010008A0
:10008000EF010008EF010008EF010008EF01000890
:10009000EF010008EF010008EF010008EF01000880
:1000A000EF010008EF010008EF010008EF01000870
:1000B000EF010008EF010008EF010008EF01000860
:1000C000EF010008EF010008EF010008EF01000850
:1000D000EF010008AD0C00085D0D0008110E0008CE
:1000E000EF010008EF010008EF010008EF01000830
:1000F000EF010008EF010008EF010008EF01000820
:10010000EF010008EF010008EF010008EF0100080F
:10011000EF010008EF010008EF010008EF010008FF
:10012000EF010008EF010008EF010008EF010008EF
:1001300000F002F800F03FF80AA090E8000C8244BA
:100140008344AAF10107DA4501D100F034F8AFF297
:10015000090EBAE80F0013F0010F18BFFB1A43F0A5
:1001600001031847B81C0000D81C0000103A24BF37
:1001700078C878C1FAD8520724BF30C830C144BF0C
:1001800004680C607047000000230024002500264E
:10019000103A28BF78C1FBD8520728BF30C148BFEA
:1001A0000B607047642900F07580002070471FB510
:1001B0001FBD10B510BD00F033F91146FFF7F7FF72
:1001C00001F0F0F800F051F903B4FFF7F2FF03BCBF
:1001D00000F058F90948804709480047FEE7FEE764
:1001E000FEE7FEE7FEE7FEE7FEE7FEE7FEE7FEE7E7
:1001F00004480549054A064B704700004D0C0008AD
:1002000031010008280100202807002028030020D1
:10021000280300200FB4044910B503AA029800F087
:10022000D1F810BC5DF814FB240000202DE9F0414A
:100230000E460446002020622046E168884730B31D
:10024000252805D0D4E901219047206A401CF2E717
:10025000E168204600278847050018D0A5F1410035
:10026000192802D820354FF4006732462946204627
:100270002760FFF797FF40B1012804D0F61D26F054
:1002800007060836D8E7361DD6E72846DAE7206A9B
:10029000BDE8F0812DE9F04106460024106875297B
:1002A000314616A510D0AFF30080002802DA404294
:1002B00013A507E031688A0701D512A502E04907B6
:1002C00004D511A5012401E0AFF3008000210A222A
:1002D00006F1240709E0B0FBF2FCB0FBF2F302FBED
:1002E0001C00303078541846491C0028F3D12346AE
:1002F0002A463046BDE8F04100F00BB8000000008F
:100300002D0000002B000000200000007047704707
:1003100070472DE9F0470D4699469246044600F194
:1003200024080168880604D5E06921F010012160E5
:1003300000E00120A84201DD471B00E00027A16981
:100340007A1902EB0900081AA0612078C00602D4CD
:100350002046AFF30080002608E0D4E901211AF816
:1003600006009047206A401C761C20624E45F4DB54
:100370002078C0060AD52046AFF3008006E0D4E915
:10038000012130209047206A401C2062381EA7F1CE
:100390000107F4DC07E0D4E9012118F805009047D3
:1003A000206A401C2062281EA5F10105F3DC2046CE
:1003B000AFF300802078000602D50220BDE8F08768
:1003C0000120FBE7074B70B50D467B4400F011F8A8
:1003D0000446284600F020F810B14FF0FF3070BD01
:1003E000204670BDBF0F000001694A1C02610878F9
:1003F000704700B58FB0CDE9013100210591054965
:100400007944CDE9031011466846FFF70FFF0FB09E
:1004100000BD0000E5FFFFFF007B00F0800070479B
:10042000754600F02BF8AE4605006946534620F0AD
:100430000700854618B020B5FFF7DAFEBDE820407A
:100440004FF000064FF000074FF000084FF0000B90
:1004500021F00701AC46ACE8C009ACE8C009ACE843
:10046000C009ACE8C0098D46704710B50446AFF32B
:1004700000802046BDE81040FFF7A6BE0048704748
:10048000C400002001491820ABBEFEE72600020090
:10049000704700BFFEE710B500F0B8F810BD704718
:1004A0002DE9F0410246002500260020002300240B
:1004B000002791F803C00CF00F0591F803C00CF071
:1004C000100CBCF1000F03D091F802C04CEA0505F6
:1004D00091F800C0BCF1000F31D0146800202BE06F
:1004E0004FF0010C0CFA00F3B1F800C00CEA03065F
:1004F0009E4220D183004FF00F0C0CFA03F7BC434F
:1005000005FA03FC4CEA040491F803C0BCF1280F7F
:1005100006D14FF0010C0CFA00FCC2F814C00AE03E
:1005200091F803C0BCF1480F05D14FF0010C0CFA53
:1005300000FCC2F810C0401C0828D1D31460B1F8E8
:1005400000C0BCF1FF0F34DD546800202EE000F144
:10055000080C4FF0010808FA0CF3B1F800C00CEADF
:1005600003069E4221D183004FF00F0C0CFA03F7D3
:10057000BC4305FA03FC4CEA040491F803C0BCF147
:10058000280F05D100F1080C08FA0CF8C2F8148005
:1005900091F803C0BCF1480F07D100F1080C4FF0EF
:1005A000010808FA0CF8C2F81080401C0828CED3C5
:1005B0005460BDE8F08100BFFEE7000010B50020E8
:1005C0000F4908600F48006820F0F0000D490860EE
:1005D0000846006840F03000086000200A49C1F871
:1005E000A401022000F0ACFE0120054908600220B1
:1005F00000F0A6FE00200449C1F8A00110BD0000D3
:10060000A0812142040C01400080214208B5012153
:10061000082000F0C1F94FF44070ADF80000102040
:100620008DF8030003208DF8020069460448FFF7A7
:1006300037FF0120034908600349C1F8A40108BD40
:10064000000C0140A08121420080214210B5002011
:100650000F4908600F48006820F0F0000D4908605D
:100660000846006840F03000086001200A49C1F8DF
:10067000A401022000F064FE012005490860022068
:1006800000F05EFE00200449C1F8A00110BD00008A
:10069000A0812142040C0140008021422DE9F0415B
:1006A00004460F4615461E4600F098F8204600F016
:1006B00065F800BF00F0E0F80028FBD1384600F0F4
:1006C0005DF800BF00F0D8F80028FBD100F086F8F4
:1006D00044F0010000F052F800BF00F0CDF800280F
:1006E000FBD10DE0012D04D1012000F011F8307094
:1006F00003E0002000F00CF83070681EC5B2761CD4
:10070000002DEFD100F092F80020BDE8F08100004C
:1007100070B50446002500261548006820F0F0005A
:10072000134908600846006840F08000086000BF78
:1007300015E000200F490860022000F001FE0120B2
:100740000D49C1F8A001022000F0FAFD7006060E66
:1007500008487C38006808B1701CC6B26D1C082DB2
:10076000E7DB14B9FFF72AFF01E0FFF76FFF70BD69
:10077000040C0140A08121420080214270B5044652
:1007800000251348006820F0F00011490860084671
:10079000006840F03000086000200E49086000BF8B
:1007A00013E0E0090B49091D08606006040E0220F1
:1007B00000F0C6FD01200849C1F8A001022000F0A8
:1007C000BFFD0020034908606D1C082DE9DB70BDEA
:1007D000040C0140A08121420080214210B5104844
:1007E000006820F0F0000E4908600846006840F0FC
:1007F0003000086001200B4908600B49C1F8A401D2
:10080000042000F09DFD00200649091D0860042019
:1008100000F096FD00200449C1F8A00110BD0000C1
:10082000040C0140A08121420080214210B50F48F4
:10083000006820F0F0000D4908600846006840F0AC
:100840003000086000200A4908600A49C1F8A40184
:10085000042000F075FD01200549091D08600549C7
:10086000C1F8A001042000F06BFD10BD040C014094
:10087000A08121420080214210B500241448006864
:1008800020F0F000124908600846006840F080003F
:10089000086001200F49086000F052FD01200E4958
:1008A000C1F8A00100F04CFD07E0601CC4B2FA2CB6
:1008B00003DDFFF7BBFF012010BD0648803800684C
:1008C0000028F2D10349091F086000BFF4E70000C7
:1008D000040C0140A48121420080214200BFFEE7B8
:1008E0007047000070B5002100230F22C47804B3C4
:1008F000154C246804F4E064C4F5E064210AC1F1F5
:100900000403CA40447804FA03F184781440214374
:1009100009010E4C0678A155047804F01F05012446
:10092000AC4005786D11AD0005F1E025C5F800413A
:1009300009E0047804F01F050124AC40044D06785A
:10094000761145F8264070BD0CED00E000E400E0B3
:1009500080E100E07047000029B1064AD2690243F5
:10096000044BDA6104E0034AD2698243014BDA6145
:10097000704700000010024029B1064A1269024384
:10098000044B1A6104E0034A12698243014B1A6165
:10099000704700000010024029B1064A92690243E4
:1009A000044B9A6104E0034A92698243014B9A61C5
:1009B000704700000010024029B1064AD268024385
:1009C000044BDA6004E0034AD2688243014BDA60E8
:1009D000704700000010024030B5002100220024C2
:1009E00000232D4D6D6805F00C0121B1042905D0BF
:1009F000082923D105E0294D056022E0274D056037
:100A00001FE0254D6D6805F47012234D6D6805F4E7
:100A10008034022505EB92421CB9214D55430560F7
:100A20000BE01D4D6D6805F400351DB11C4D55439F
:100A3000056002E0194D5543056002E0174D056061
:100A400000BF00BF144D6D6805F0F0010909154D98
:100A50006B5C0568DD4045600F4D6D6805F4E06135
:100A6000090A104D6B5C4568DD4085600A4D6D6874
:100A700005F46051C90A0B4D6B5C4568DD40C560EB
:100A8000054D6D6805F44041890B074D6B5CC568E9
:100A9000B5FBF3F5056130BD0010024000127A008D
:100AA00000093D005000002060000020014601F0D8
:100AB0000F000A110A2303FB0200C0B270472DE9A0
:100AC000FC5F04460D4616461F46DDE90D9ADDF82B
:100AD00030806B4607220021D020FFF7DFFD8346E0
:100AE000BBF1000F25D19DF80000FFF7DFFF30704C
:100AF0009DF80100FFF7DAFF28709DF80200FFF76C
:100B0000D5FF20709DF80300FFF7D0FF38709DF8E7
:100B10000400FFF7CBFF88F800009DF80500FFF701
:100B2000C5FF89F800009DF80600FFF7BFFF8AF8AF
:100B30000000BDE8FC9F704710B500F001F810BD43
:100B40000CB50020019000903348006840F48030DC
:100B50003149086000BF3048006800F40030009060
:100B60000198401C0190009818B90198B0F5A06F49
:100B7000F1D12948006800F4003010B10120009044
:100B800001E0002000900098012843D1234800682C
:100B900040F01000214908600846006820F003007A
:100BA00008600846006840F0020008601A48406883
:100BB000194948600846406848600846406840F463
:100BC000806048600846406820F47C104860084611
:100BD000406840F4E81048600846006840F08070C3
:100BE000086000BF0C48006800F000700028F9D0D1
:100BF0000948406820F003000749486008464068FB
:100C000040F00200486000BF0348406800F00C005C
:100C10000828F9D10CBD000000100240002002405D
:100C2000042808D14FF0E021096941F004014FF098
:100C3000E022116107E04FF0E021096921F0040191
:100C40004FF0E022116170477047000010B5134863
:100C5000006840F0010011490860084640681049EA
:100C600008400E494860084600680E4908400B4994
:100C700008600846006820F4802008600846406844
:100C800020F4FE0048604FF41F008860FFF754FF17
:100C90004FF000600449086010BD000000100240E1
:100CA0000000FFF8FFFFF6FE08ED00E010B540F28F
:100CB0002551064800F091F930B10448001D008824
:100CC000C1B2034800F0C8F910BD0000003801406F
:100CD0002800002010B50446E4B901210520FFF7E3
:100CE0005BFE01218803FFF757FE4FF4007018499F
:100CF00008801820C870032088701648FFF7D0FBC2
:100D00004FF48060124908800420C8701148FFF732
:100D1000C7FB1BE0012C19D101210820FFF73CFE85
:100D200001218803FFF738FE402009490880182078
:100D3000C870032088700848FFF7B2FB8020044980
:100D400008800420C8700448FFF7AAFB10BD00000B
:100D50004C00002000080140000C014010B540F29A
:100D60002551064800F039F930B10448001D0088CB
:100D7000C1B2034800F070F910BD0000004400400B
:100D80003400002010B5044601214804FFF7E4FDBB
:100D9000022C1AD101210420FFF7FEFD0121480495
:100DA000FFF7DAFD0420174908801820C8700320D7
:100DB00088701548FFF774FB08201249088004204A
:100DC000C8701148FFF76CFB1BE0032C19D10121FF
:100DD0002020FFF7E1FD01214804FFF7BDFD2020A1
:100DE000084908801820C870032088700748FFF75A
:100DF00057FB4020034908800420C8700348FFF7D0
:100E00004FFB10BD4C0000200008014000140140C1
:100E100010B540F22551064800F0DFF830B1044823
:100E2000001D0088C1B2034800F016F910BD000093
:100E3000004800404000002010B50446012188040D
:100E4000FFF78AFD042C1AD101210820FFF7A4FD29
:100E500001218804FFF7A0FD2002284908801820FE
:100E6000C870032088702648FFF71AFB60022349E8
:100E700008800420C8702248FFF712FB3CE0052CD4
:100E80001CD101211020FFF787FD01218804FFF705
:100E900083FD4FF48060194908801820C870032032
:100EA00088701848FFF7FCFA4FF400601349088077
:100EB0000420C8701348FFF7F3FA1DE0062C1BD17D
:100EC00001212020FFF768FD01218804FFF764FD60
:100ED0004FF48070094908801820C870032088707A
:100EE0000948FFF7DDFA4FF4007004490880042038
:100EF000C8700548FFF7D4FA10BD00004C00002070
:100F0000000C0140001001400014014021B1828911
:100F100042F40052828104E082894DF6FF731A4048
:100F20008281704710B504462048844209D10121CE
:100F30008803FFF741FD00214FF48040FFF73CFD9F
:100F400032E01B48844209D101214804FFF714FD17
:100F500000214FF40030FFF70FFD25E015488442D3
:100F600009D101218804FFF707FD00214FF48020FB
:100F7000FFF702FD18E01048844209D10121C8049E
:100F8000FFF7FAFC00214FF40020FFF7F5FC0BE01F
:100F90000A48844208D101210805FFF7EDFC002131
:100FA0004FF48010FFF7E8FC10BD0000003801404E
:100FB0000044004000480040004C00400050004009
:100FC00002460020B1F5007F00D100BF13880B401E
:100FD0000BB1012000E00020704770B502460024EC
:100FE00000230025002040F66A16B14200D100BF60
:100FF000C1F3421501F01F03012606FA03F3012D88
:1010000002D19689334006E0022D02D1168A334080
:1010100001E0968A33400C12012606FA04F4168881
:10102000344013B10CB1012000E0002070BD00007D
:101030000146064A914200D10020054A914200D162
:101040000120044A914200D102207047003801403B
:10105000004400400048004010B5C28883889A428E
:101060000FDA028983889A4201D1002202814AB2B2
:10107000048903681A550289521C0281C288521CD5
:10108000C28010BDF0B503460024002600250020D4
:1010900040F66A17B94200D100BF1846C1F34214A6
:1010A00001F01F06012707FA06F5012C01D10C30CB
:1010B00004E0022C01D1103000E014301AB10768AE
:1010C0002F43076002E00768AF430760F0BD0000F0
:1010D0002DE9F04786B005460E460024A24600BF23
:1010E000A1460027B08900B100BF2F462C8A4CF6DC
:1010F000FF700440F08804432C82AC894EF6F31054
:101100000440B08831890843718908430443AC81A5
:10111000AC8A4FF6FF400440B0890443AC8201A87A
:10112000FFF75AFC1F48874202D1DDF810A001E00A
:10113000DDF80CA0A88900F4004040B10AEBCA0019
:1011400000EB0A1031684900B0FBF1F807E00AEB48
:10115000CA0000EB0A1031688900B0FBF1F8642086
:10116000B8FBF0F004012009642101FB1089A88973
:1011700000F4004040B1322000EBC900B0FBF1F0B8
:1011800000F00700044308E0322000EB091064215E
:10119000B0FBF1F000F00F0004432C8106B0BDE875
:1011A000F08700000038014013B5044600BF8021DD
:1011B0002046FFF705FF0028F9D09DF80400A08025
:1011C0001CBD000070B586B004460D46164602965A
:1011D0003348844212D12846FFF77CFD25208DF844
:1011E00004000020ADF814000C20ADF8120000201F
:1011F000ADF81000ADF80E00ADF80C00294884429F
:1012000012D12846FFF7BEFD26208DF804000020ED
:10121000ADF814000C20ADF812000020ADF810005D
:10122000ADF80E00ADF80C001F48844212D12846DC
:10123000FFF702FE27208DF804000020ADF814000F
:101240000C20ADF812000020ADF81000ADF80E0033
:10125000ADF80C0000212046FFF758FE2046FFF7AE
:1012600061FE02A92046FFF733FF01212046FFF768
:101270004DFE012240F225512046FFF703FF0120D9
:101280008DF8070000208DF805002046FFF7D0FEFE
:101290008DF8060001A8FFF725FB06B070BD000021
:1012A00000380140004400400048004000BFFEE715
:1012B00010B56FF00400FFF7B3FC0A4800680A4954
:1012C000B0FBF1F0094908700846007800EB4001D6
:1012D000C1EBC0104FF6FF7101EAC000044908805D
:1012E00010BD00000C00002000127A002000002039
:1012F000220000200146114A12884A434FF0E023A1
:101300005A6100229A611A46126942F001021A617A
:1013100000BF4FF0E022106900F001021AB100F4A2
:101320008032002AF5D04FF0E022126922F001024B
:101330004FF0E0231A6100229A61704722000020DA
:101340000146114A12784A434FF0E0235A610022C5
:101350009A611A46126942F001021A6100BF4FF009
:10136000E022106900F001021AB100F48032002A74
:10137000F5D04FF0E022126922F001024FF0E02395
:101380001A6100229A6170472000002070B504465F
:101390000D46E1B20248FFF707FF204670BD00008E
:1013A000003801400EB500BF00BF00BF00BFFFF70F
:1013B0007FFF0121152000F057F80021162000F0D2
:1013C00053F84FF4E13200211748FFF7FBFE17A056
:1013D000FEF720FFFFF75FF840F21450FFF78AFF97
:1013E00021E014481449154A154BCDE9002102901B
:1013F000144A15491548FFF762FB0E4800780E495C
:1014000009780E4A1278CDE9002102900D48037840
:101410000D4802780D4801780DA0FEF7FBFE4FF451
:10142000FA70FFF767FFDCE7003801406162630D87
:101430000A0000000A000020090000200800002027
:101440000700002006000020050000200400002006
:1014500025642D25642D256420092025642F25640D
:101460002F2564200D0A0000F8B505460C4605EB53
:101470004500294951F8306005EB450001EBC000FB
:10148000808887B205EB4501234A02EBC1018868D9
:101490000121FFF781FAADF800701CB904208DF826
:1014A000030034E0022C03D148208DF803002EE025
:1014B000032C03D128208DF8030028E0012C06D14D
:1014C00010208DF8030003208DF802001FE0072C88
:1014D00006D114208DF8030003208DF8020016E0D9
:1014E000042C06D11C208DF8030003208DF8020087
:1014F0000DE0052C06D118208DF8030003208DF88F
:10150000020004E0062C02D100208DF80300694699
:101510003046FEF7C5FFF8BD1C1500080008014065
:10152000010000000400000000000000000C00406A
:10153000000000000008014002000000040000005C
:10154000010000000000004004000000000801400D
:101550000400000004000000020000000000004041
:10156000080000000008014008000000040000001E
:1015700003000000000000400C00000000080140D3
:101580001000000004000000040000000000000043
:1015900000000000000801402000000004000000DE
:1015A00005000000000000000000000000080140ED
:1015B000400000000400000006000000000400409D
:1015C000000000000008014080000000040000004E
:1015D0000700000000040040040000000008014073
:1015E000000100000400000000000000002C014089
:1015F000000000000008014000020000040000009C
:1016000000000000002C0140040000000008014020
:10161000000400000400000000000000002C014055
:10162000080000000008014000080000040000005D
:1016300000000000002C01400C00000000080140E8
:101640000010000004000000000000000000000086
:10165000000000000008014000200000040000001D
:101660000000000000000000000000000008014031
:101670000040000004000000000000000000000026
:10168000000000000008014000800000040000008D
:10169000000000000000000000000000000C0140FD
:1016A00001000000080000000800000000040040E5
:1016B00008000000000C01400200000008000000CB
:1016C00009000000000400400C000000000C014074
:1016D00004000000080000000000000000000000FE
:1016E00000000000000C014008000000080000009D
:1016F000000000000000004004000000000C014059
:10170000100000000800000000000000000400407D
:1017100000000000000C0140200000000800000054
:10172000000000000004004004000000000C014024
:101730004000000008000000000000000008004019
:1017400000000000000C01408000000008000000C4
:10175000000000000008004004000000000C0140F0
:1017600000010000080000000000000000500140DF
:1017700000000000000C0140000200000800000012
:10178000000000000054014000000000000C014077
:1017900000040000080000000000000000000040FD
:1017A00008000000000C01400008000008000000D4
:1017B00000000000000000400C000000000C014090
:1017C0000010000008000000000000000000000001
:1017D00000000000000C0140002000000800000094
:1017E000000000000000000000000000000C0140AC
:1017F0000040000008000000000000000018004049
:1018000000000000000C0140008000000800000003
:10181000000000000018004004000000001001401B
:1018200001000000100000000A000000000000009D
:101830000000000000100140020000001000000045
:101840000B0000000000000000000000001001403C
:1018500004000000100000000C0000000000000068
:10186000000000000010014008000000100000000F
:101870000D0000000000000000000000001001400A
:1018800010000000100000000E000000000000002A
:1018900000000000001001402000000010000000C7
:1018A0000E000000000000000000000000100140D9
:1018B0004000000010000000000000000034014063
:1018C0000000000000100140800000001000000037
:1018D000000000000034014004000000001001403E
:1018E0000001000010000000000000000034014072
:1018F000080000000010014000020000100000007D
:1019000000000000003401400C0000000010014005
:1019100000040000100000000000000000000000B3
:10192000000000000010014000080000100000004E
:101930000000000000000000000000000010014056
:101940000010000010000000000000000000000077
:101950000000000000100140002000001000000006
:101960000000000000000000000000000010014026
:101970000040000010000000000000000000000017
:101980000000000000100140008000001000000076
:1019900000000000000000000000000000140140F2
:1019A0000100000020000000000000000000000016
:1019B00000000000001401400200000020000000B0
:1019C00000000000000000000000000000140140C2
:1019D00004000000200000000000000000000000E3
:1019E000000000000014014008000000200000007A
:1019F0000000000000000000000000000014014092
:101A000010000000200000000000000000000000A6
:101A10000000000000140140200000002000000031
:101A20000000000000000000000000000014014061
:101A30004000000020000000000000000000000046
:101A400000000000001401408000000020000000A1
:101A50000000000000000000000000000014014031
:101A60000001000020000000000000000000000055
:101A700000000000001401400002000020000000EF
:101A80000000000000000000000000000014014001
:101A90000004000020000000000000000000000022
:101AA00000000000001401400008000020000000B9
:101AB00000000000000000000000000000140140D1
:101AC000001000002000000000000000000800409E
:101AD0000000000000140140002000002000000071
:101AE0000000000000080040040000000014014055
:101AF000004000002000000000000000000800403E
:101B000008000000001401400080000020000000D8
:101B100000000000000800400C0000000018014018
:101B20000100000040000000000000000000000074
:101B3000000000000018014002000000400000000A
:101B4000000000000000000000000000001801403C
:101B50000400000040000000000000000000000041
:101B600000000000001801400800000040000000D4
:101B7000000000000000000000000000001801400C
:101B80001000000040000000000000000000000005
:101B9000000000000018014020000000400000008C
:101BA000000000000010004000000000001801408C
:101BB0004000000040000000000000000010004055
:101BC00004000000001801408000000040000000F8
:101BD00000000000000000000000000000180140AC
:101BE00000010000400000000000000000000000B4
:101BF000000000000018014000020000400000004A
:101C000000000000002C014000000000001801400E
:101C10000004000040000000000000000000000080
:101C20000000000000180140000800004000000013
:101C300000000000002C01400400000000180140DA
:101C40000010000040000000000000000000000044
:101C500000000000001801400020000040000000CB
:101C600000000000002C01400800000000180140A6
:101C7000004000004000000000000000002C014077
:101C80000C0000000018014000800000400000002F
:101C9000000000000000000000000000001C0140E7
:101CA00001000000800000000000000000000000B3
:101CB00000000000001C0140020000008000000045
:101CC000000000000000000000000000001C0140B7
:101CD0000400000080000000000000000000000080
:101CE00000000000001C014008000000800000000F
:101CF000000000000000000000000000001C014087
:101D00001000000080000000000000000000000043
:101D100000000000001C01402000000080000000C6
:101D2000000000000000000000000000001C014056
:101D300040000000800000000000000000000000E3
:101D400000000000001C0140800000008000000036
:101D5000000000000000000000000000001C014026
:101D600000010000800000000000000000000000F2
:101D700000000000001C0140000200008000000084
:101D8000000000000000000000000000001C0140F6
:101D900000040000800000000000000000000000BF
:101DA00000000000001C014000080000800000004E
:101DB000000000000000000000000000001C0140C6
:101DC0000010000080000000000000000000000083
:101DD00000000000001C0140002000008000000006
:101DE000000000000000000000000000001C014096
:101DF0000040000080000000000000000000000023
:101E000000000000001C0140008000008000000075
:101E10000000000000000000000000003C1E000860
:101E200000000020640000006C010008A01E0008F3
:101E300064000020C40600008801000800000000C3
:101E4000000000000000000000A24A0400000000A2
:101E5000000000000102030406070809000000005A
:101E600000000000640000202000000000000000CE
:101E7000840000202000000000000000A4000020DA
:101E80002000000000000000000000000000000032
:101E900001020304010203040607080902040608FC
:0400000508000131BD
:00000001FF
