:020000040800F2
:1000000018070020D5010008390700088F050008EF
:1000100035070008730400087D1000080000000088
:1000200000000000000000000000000005090008BA
:100030007704000800000000AD070008190A000856
:10004000EF010008EF010008EF010008EF010008D0
:10005000EF010008EF010008EF010008EF010008C0
:10006000EF010008EF010008EF010008EF010008B0
:10007000EF010008EF010008EF010008EF010008A0
:10008000EF010008EF010008EF010008EF01000890
:10009000EF010008EF010008EF010008EF01000880
:1000A000EF010008EF010008EF010008EF01000870
:1000B000EF010008EF010008EF010008EF01000860
:1000C000EF010008EF010008EF010008EF01000850
:1000D000EF0100087D0A00082D0B0008E10B000865
:1000E000EF010008EF010008EF010008EF01000830
:1000F000EF010008EF010008EF010008EF01000820
:10010000EF010008EF010008EF010008EF0100080F
:10011000EF010008EF010008EF010008EF010008FF
:10012000EF010008EF010008EF010008EF010008EF
:1001300000F002F800F03FF80AA090E8000C8244BA
:100140008344AAF10107DA4501D100F034F8AFF297
:10015000090EBAE80F0013F0010F18BFFB1A43F0A5
:1001600001031847C8100000E8100000103A24BF2F
:1001700078C878C1FAD8520724BF30C830C144BF0C
:1001800004680C607047000000230024002500264E
:10019000103A28BF78C1FBD8520728BF30C148BFEA
:1001A0000B607047782900F07580002070471FB5FC
:1001B0001FBD10B510BD00F023F91146FFF7F7FF82
:1001C00000F0D8FF00F041F903B4FFF7F2FF03BCE1
:1001D00000F048F90948804709480047FEE7FEE774
:1001E000FEE7FEE7FEE7FEE7FEE7FEE7FEE7FEE7E7
:1001F00004480549054A064B704700001D0A0008DF
:100200003101000818010020180700201803002001
:10021000180300200FB4044910B503AA029800F097
:10022000C1F810BC5DF814FB040000202DE9F0417A
:100230000E460446002020622046E168884730B31D
:10024000252805D0D4E901219047206A401CF2E717
:10025000E168204600278847050018D0A5F1410035
:10026000192802D820354FF4006732462946204627
:100270002760FFF797FF40B1012804D0F61D26F054
:1002800007060836D8E7361DD6E72846DAE7206A9B
:10029000BDE8F08170B504460D4621461068AFF305
:1002A00000802188090502D50F4A7A4402E00E4AEF
:1002B0007A440E32002104F1240305E000F00F0619
:1002C0000009965D5E54491C0028F7D12078002370
:1002D000000704D5702D02D009B102231132204647
:1002E000BDE8704000F005B8560F00007047704739
:1002F00070472DE9F0470D4699469246044600F1B5
:1003000024080168880604D5E06921F01001216005
:1003100000E00120A84201DD471B00E00027A169A1
:100320007A1902EB0900081AA0612078C00602D4ED
:100330002046AFF30080002608E0D4E901211AF836
:1003400006009047206A401C761C20624E45F4DB74
:100350002078C0060AD52046AFF3008006E0D4E935
:10036000012130209047206A401C2062381EA7F1EE
:100370000107F4DC07E0D4E9012118F805009047F3
:10038000206A401C2062281EA5F10105F3DC2046EE
:10039000AFF300802078000602D50220BDE8F08788
:1003A0000120FBE7074B70B50D467B4400F011F8C8
:1003B0000446284600F020F810B14FF0FF3070BD21
:1003C000204670BDAF0D000001694A1C026108782B
:1003D000704700B58FB0CDE9013100210591054985
:1003E0007944CDE9031011466846FFF71FFF0FB0AF
:1003F00000BD0000E5FFFFFF007B00F080007047BC
:10040000754600F02BF8AE4605006946534620F0CD
:100410000700854618B020B5FFF7EAFEBDE820408A
:100420004FF000064FF000074FF000084FF0000BB0
:1004300021F00701AC46ACE8C009ACE8C009ACE863
:10044000C009ACE8C0098D46704710B50446AFF34B
:1004500000802046BDE81040FFF7B6BE0048704758
:10046000B800002001491820ABBEFEE726000200BC
:10047000704700BFFEE770472DE9F04102460025B6
:100480000026002000230024002791F803C00CF070
:100490000F0591F803C00CF0100CBCF1000F03D055
:1004A00091F802C04CEA050591F800C0BCF1000FBC
:1004B00031D0146800202BE04FF0010C0CFA00F34F
:1004C000B1F800C00CEA03069E4220D183004FF031
:1004D0000F0C0CFA03F7BC4305FA03FC4CEA0404C6
:1004E00091F803C0BCF1280F06D14FF0010C0CFAB3
:1004F00000FCC2F814C00AE091F803C0BCF1480F38
:1005000005D14FF0010C0CFA00FCC2F810C0401CE1
:100510000828D1D31460B1F800C0BCF1FF0F34DD5E
:10052000546800202EE000F1080C4FF0010808FA92
:100530000CF3B1F800C00CEA03069E4221D18300FF
:100540004FF00F0C0CFA03F7BC4305FA03FC4CEA1E
:10055000040491F803C0BCF1280F05D100F1080C88
:1005600008FA0CF8C2F8148091F803C0BCF1480FE7
:1005700007D100F1080C4FF0010808FA0CF8C2F896
:100580001080401C0828CED35460BDE8F08100BF25
:10059000FEE7000008B50121082000F029F94FF41A
:1005A0004070ADF8000010208DF8030003208DF896
:1005B000020069460448FFF75FFF01200349086015
:1005C0000349C1F8A40108BD000C0140A0812142EB
:1005D0000080214270B5044600251348006820F0D1
:1005E000F000114908600846006840F030000860DB
:1005F00000200E49086000BF13E0E0090B49091D07
:1006000008606006040E022000F082FD0120084907
:10061000C1F8A001022000F07BFD00200349086022
:100620006D1C082DE9DB70BD040C0140A081214246
:100630000080214210B51048006820F0F0000E49FB
:1006400008600846006840F03000086001200B494F
:1006500008600B49C1F8A401042000F059FD0020F6
:100660000649091D0860042000F052FD00200449DD
:10067000C1F8A00110BD0000040C0140A08121427E
:100680000080214210B50F48006820F0F0000D49AD
:1006900008600846006840F03000086000200A4901
:1006A00008600A49C1F8A401042000F031FD0120CE
:1006B0000549091D08600549C1F8A001042000F0A2
:1006C00027FD10BD040C0140A08121420080214281
:1006D00010B500241448006820F0F00012490860AA
:1006E0000846006840F08000086001200F4908605B
:1006F00000F00EFD01200E49C1F8A00100F008FD38
:1007000007E0601CC4B2FA2C03DDFFF7BBFF012039
:1007100010BD0648803800680028F2D10349091F3F
:10072000086000BFF4E70000040C0140A4812142EE
:100730000080214200BFFEE77047000070B5002135
:1007400000230F22C47804B3154C246804F4E06439
:10075000C4F5E064210AC1F10403CA40447804FAF4
:1007600003F184781440214309010E4C0678A15509
:10077000047804F01F050124AC4005786D11AD002C
:1007800005F1E025C5F8004109E0047804F01F05F3
:100790000124AC40044D0678761145F8264070BD22
:1007A0000CED00E000E400E080E100E070470000B4
:1007B00029B1064AD2690243044BDA6104E0034AD4
:1007C000D2698243014BDA61704700000010024099
:1007D00029B1064A12690243044B1A6104E0034A34
:1007E00012698243014B1A617047000000100240F9
:1007F00029B1064A92690243044B9A6104E0034A14
:1008000092698243014B9A617047000000100240D8
:1008100029B1064AD2680243044BDA6004E0034A75
:10082000D2688243014BDA6070470000001002403A
:1008300030B500210022002400232D4D6D6805F005
:100840000C0121B1042905D0082923D105E0294D47
:10085000056022E0274D05601FE0254D6D6805F419
:100860007012234D6D6805F48034022505EB924229
:100870001CB9214D554305600BE01D4D6D6805F415
:1008800000351DB11C4D5543056002E0194D55431F
:10089000056002E0174D056000BF00BF144D6D6894
:1008A00005F0F0010909154D6B5C0568DD404560F8
:1008B0000F4D6D6805F4E061090A104D6B5C4568E9
:1008C000DD4085600A4D6D6805F46051C90A0B4D25
:1008D0006B5C4568DD40C560054D6D6805F44041C1
:1008E000890B074D6B5CC568B5FBF3F5056130BD41
:1008F0000010024000127A0000093D003000002084
:1009000040000020704710B500F002F810BD000054
:100910000CB50020019000903348006840F480300E
:100920003149086000BF3048006800F40030009092
:100930000198401C0190009818B90198B0F5A06F7B
:10094000F1D12948006800F4003010B10120009076
:1009500001E0002000900098012843D1234800685E
:1009600040F01000214908600846006820F00300AC
:1009700008600846006840F0020008601A484068B5
:10098000194948600846406848600846406840F495
:10099000806048600846406820F47C104860084643
:1009A000406840F4E81048600846006840F08070F5
:1009B000086000BF0C48006800F000700028F9D003
:1009C0000948406820F0030007494860084640682D
:1009D00040F00200486000BF0348406800F00C008F
:1009E0000828F9D10CBD0000001002400020024090
:1009F000042808D14FF0E021096941F004014FF0CB
:100A0000E022116107E04FF0E021096921F00401C3
:100A10004FF0E022116170477047000010B5134895
:100A2000006840F00100114908600846406810491C
:100A300008400E494860084600680E4908400B49C6
:100A400008600846006820F4802008600846406876
:100A500020F4FE0048604FF41F008860FFF753FF4A
:100A60004FF000600449086010BD00000010024013
:100A70000000FFF8FFFFF6FE08ED00E010B540F2C1
:100A80002551064800F091F930B10448001D008856
:100A9000C1B2034800F0C8F910BD000000380140A1
:100AA0000800002010B50446E4B901210520FFF735
:100AB0009FFE01218803FFF79BFE4FF40070184949
:100AC00008801820C870032088701648FFF7D4FCEF
:100AD0004FF48060124908800420C8701148FFF765
:100AE000CBFC1BE0012C19D101210820FFF780FE6F
:100AF00001218803FFF77CFE402009490880182067
:100B0000C870032088700848FFF7B6FC80200449AD
:100B100008800420C8700448FFF7AEFC10BD000038
:100B20002C00002000080140000C014010B540F2EC
:100B30002551064800F039F930B10448001D0088FD
:100B4000C1B2034800F070F910BD0000004400403D
:100B50001400002010B5044601214804FFF728FEC8
:100B6000022C1AD101210420FFF742FE0121480482
:100B7000FFF71EFE0420174908801820C8700320C4
:100B800088701548FFF778FC082012490880042077
:100B9000C8701148FFF770FC1BE0032C19D101212C
:100BA0002020FFF725FE01214804FFF701FE202049
:100BB000084908801820C870032088700748FFF78C
:100BC0005BFC4020034908800420C8700348FFF7FD
:100BD00053FC10BD2C00002000080140001401400F
:100BE00010B540F22551064800F0DFF830B1044856
:100BF000001D0088C1B2034800F016F910BD0000C6
:100C0000004800402000002010B50446012188045F
:100C1000FFF7CEFD042C1AD101210820FFF7E8FDD3
:100C200001218804FFF7E4FD2002284908801820EC
:100C3000C870032088702648FFF71EFC6002234915
:100C400008800420C8702248FFF716FC3CE0052C01
:100C50001CD101211020FFF7CBFD01218804FFF7F3
:100C6000C7FD4FF48060194908801820C870032020
:100C700088701848FFF700FC4FF4006013490880A3
:100C80000420C8701348FFF7F7FB1DE0062C1BD1AA
:100C900001212020FFF7ACFD01218804FFF7A8FD0A
:100CA0004FF48070094908801820C87003208870AC
:100CB0000948FFF7E1FB4FF4007004490880042065
:100CC000C8700548FFF7D8FB10BD00002C000020BD
:100CD000000C0140001001400014014021B1828944
:100CE00042F40052828104E082894DF6FF731A407B
:100CF0008281704710B504462048844209D1012101
:100D00008803FFF785FD00214FF48040FFF780FD49
:100D100032E01B48844209D101214804FFF758FD05
:100D200000214FF40030FFF753FD25E015488442C1
:100D300009D101218804FFF74BFD00214FF48020E9
:100D4000FFF746FD18E01048844209D10121C8048C
:100D5000FFF73EFD00214FF40020FFF739FD0BE0C7
:100D60000A48844208D101210805FFF731FD00211E
:100D70004FF48010FFF72CFD10BD0000003801403B
:100D80000044004000480040004C0040005000403B
:100D900002460020B1F5007F00D100BF13880B4050
:100DA0000BB1012000E00020704770B5024600241E
:100DB00000230025002040F66A16B14200D100BF92
:100DC000C1F3421501F01F03012606FA03F3012DBA
:100DD00002D19689334006E0022D02D1168A3340B3
:100DE00001E0968A33400C12012606FA04F41688B4
:100DF000344013B10CB1012000E0002070BD0000B0
:100E00000146064A914200D10020054A914200D194
:100E10000120044A914200D102207047003801406D
:100E2000004400400048004010B5C28883889A42C0
:100E30000FDA028983889A4201D1002202814AB2E4
:100E4000048903681A550289521C0281C288521C07
:100E5000C28010BDF0B50346002400260025002006
:100E600040F66A17B94200D100BF1846C1F34214D8
:100E700001F01F06012707FA06F5012C01D10C30FD
:100E800004E0022C01D1103000E014301AB10768E0
:100E90002F43076002E00768AF430760F0BD000022
:100EA0002DE9F04786B005460E460024A24600BF55
:100EB000A1460027B08900B100BF2F462C8A4CF60E
:100EC000FF700440F08804432C82AC894EF6F31086
:100ED0000440B08831890843718908430443AC81D8
:100EE000AC8A4FF6FF400440B0890443AC8201A8AD
:100EF000FFF79EFC1F48874202D1DDF810A001E0F9
:100F0000DDF80CA0A88900F4004040B10AEBCA004B
:100F100000EB0A1031684900B0FBF1F807E00AEB7A
:100F2000CA0000EB0A1031688900B0FBF1F86420B8
:100F3000B8FBF0F004012009642101FB1089A889A5
:100F400000F4004040B1322000EBC900B0FBF1F0EA
:100F500000F00700044308E0322000EB0910642190
:100F6000B0FBF1F000F00F0004432C8106B0BDE8A7
:100F7000F08700000038014013B5044600BF80210F
:100F80002046FFF705FF0028F9D09DF80400A08057
:100F90001CBD000070B586B004460D46164602968C
:100FA0003348844212D12846FFF77CFD25208DF876
:100FB00004000020ADF814000C20ADF81200002051
:100FC000ADF81000ADF80E00ADF80C0029488442D1
:100FD00012D12846FFF7BEFD26208DF80400002020
:100FE000ADF814000C20ADF812000020ADF8100090
:100FF000ADF80E00ADF80C001F48844212D128460F
:10100000FFF702FE27208DF804000020ADF8140041
:101010000C20ADF812000020ADF81000ADF80E0065
:10102000ADF80C0000212046FFF758FE2046FFF7E0
:1010300061FE02A92046FFF733FF01212046FFF79A
:101040004DFE012240F225512046FFF703FF01200B
:101050008DF8070000208DF805002046FFF7D0FE30
:101060008DF8060001A8FFF769FB06B070BD00000F
:1010700000380140004400400048004000BFFEE747
:1010800010B56FF00400FFF7B3FC0A4800680A4986
:10109000B0FBF1F0094908700846007800EB400108
:1010A000C1EBC0104FF6FF7101EAC000044908808F
:1010B00010BD00004400002000127A000000002053
:1010C000020000200146114A12884A434FF0E023F3
:1010D0005A6100229A611A46126942F001021A61AD
:1010E00000BF4FF0E022106900F001021AB100F4D5
:1010F0008032002AF5D04FF0E022126922F001027E
:101100004FF0E0231A6100229A617047020000202C
:101110000146114A12784A434FF0E0235A610022F7
:101120009A611A46126942F001021A6100BF4FF03B
:10113000E022106900F001021AB100F48032002AA6
:10114000F5D04FF0E022126922F001024FF0E023C7
:101150001A6100229A6170470000002070B50446B1
:101160000D46E1B20248FFF707FF204670BD0000C0
:101170000038014000BF0024002500BF00BFFFF77A
:101180007FFF4FF4E13200211048FFF703FF10A06A
:10119000FFF740F8FFF7FEF916E001240AE02046C9
:1011A00000F020F805461DB921460BA0FFF732F8E4
:1011B000601CC4B2FF2CF2DB40F2DC50FFF782FF70
:1011C00040F21450FFF77EFFE7E7000000380140CF
:1011D0006162630D0A0000004144443D20307825DF
:1011E000580D0A0010B50446FFF724FA2046FFF711
:1011F000F1F9FFF76DFA18B1FFF744FA012010BDBD
:101200000020FCE73031323334353637383941424B
:101210004344454640305800303132333435363758
:101220003839616263646566403078004C120008AA
:1012300000000020580000006C010008A412000803
:1012400058000020C00600008801000800000000CF
:1012500000000000580000202000000000000000F6
:10126000780000202000000000000000980000200E
:10127000200000000000000000000000000000004E
:101280000102030401020304060708090204060818
:1012900000A24A0400000000000000000102030454
:0412A000060708092C
:0400000508000131BD
:00000001FF
