:020000040800F2
:1000000018070020D50100080B05000803050008AB
:1000100007050008E7030008750F0008000000004E
:10002000000000000000000000000000D5060008ED
:10003000EB030008000000007D050008E907000848
:10004000EF010008EF010008EF010008EF010008D0
:10005000EF010008EF010008EF010008EF010008C0
:10006000EF010008EF010008EF010008EF010008B0
:10007000EF010008EF010008EF010008EF010008A0
:10008000EF010008EF010008EF010008EF01000890
:10009000EF010008EF010008EF010008EF01000880
:1000A000EF010008EF010008EF010008EF01000870
:1000B000EF010008EF010008EF010008EF01000860
:1000C000EF010008EF010008EF010008EF01000850
:1000D000EF0100084D080008FD080008B1090008FC
:1000E000EF010008EF010008EF010008EF01000830
:1000F000EF010008EF010008EF010008EF01000820
:10010000EF010008EF010008EF010008EF0100080F
:10011000EF010008EF010008EF010008EF010008FF
:10012000EF010008EF010008EF010008EF010008EF
:1001300000F002F800F03FF80AA090E8000C8244BA
:100140008344AAF10107DA4501D100F034F8AFF297
:10015000090EBAE80F0013F0010F18BFFB1A43F0A5
:1001600001031847A80E0000C80E0000103A24BF73
:1001700078C878C1FAD8520724BF30C830C144BF0C
:1001800004680C607047000000230024002500264E
:10019000103A28BF78C1FBD8520728BF30C148BFEA
:1001A0000B607047732900F0B380002070471FB5C3
:1001B0001FBD10B510BD00F0DDF81146FFF7F7FFC9
:1001C00000F008FF00F0FBF803B4FFF7F2FF03BCF8
:1001D00000F002F90948804709480047FEE7FEE7BA
:1001E000FEE7FEE7FEE7FEE7FEE7FEE7FEE7FEE7E7
:1001F00004480549054A064B70470000ED07000812
:100200003101000818010020180700201803002001
:10021000180300200FB4044910B503AA029800F097
:100220007BF810BC5DF814FB180000202DE9F041AC
:100230000E460446002020622046E168884730B31D
:10024000252805D0D4E901219047206A401CF2E717
:10025000E168204600278847050018D0A5F1410035
:10026000192802D820354FF4006732462946204627
:100270002760FFF797FF40B1012804D0F61D26F054
:1002800007060836D8E7361DD6E72846DAE7206A9B
:10029000BDE8F08170B50C460546012A05D02878E6
:1002A000800600D5EA69002302E0012305E05B1C1B
:1002B000934202D2E05C0028F9D1A869E618C01A7E
:1002C000A861286A184428622846AFF3008004E039
:1002D000D5E9012114F8010B9047B442F8D3284620
:1002E000AFF3008070BD70477047704710B5436929
:1002F00013B1AFF3008001E0FFF7CCFF012010BD88
:10030000127800F124010A7000224A700122EDE700
:1003100011684FF0FF32E9E7074B70B50D467B449B
:1003200000F011F80446284600F020F810B14FF014
:10033000FF3070BD204670BD9B0C000001694A1C57
:1003400002610878704700B58FB0CDE90131002116
:10035000059105497944CDE9031011466846FFF738
:1003600065FF0FB000BD0000E5FFFFFF007B00F060
:1003700080007047754600F02BF8AE4605006946D0
:10038000534620F00700854618B020B5FFF730FF30
:10039000BDE820404FF000064FF000074FF0000886
:1003A0004FF0000B21F00701AC46ACE8C009ACE807
:1003B000C009ACE8C009ACE8C0098D46704710B56B
:1003C0000446AFF300802046BDE81040FFF7FCBEB6
:1003D00000487047B800002001491820ABBEFEE776
:1003E00026000200704700BFFEE770472DE9F0418C
:1003F000024600250026002000230024002791F853
:1004000003C00CF00F0591F803C00CF0100CBCF108
:10041000000F03D091F802C04CEA050591F800C026
:10042000BCF1000F31D0146800202BE04FF0010C1C
:100430000CFA00F3B1F800C00CEA03069E4220D18A
:1004400083004FF00F0C0CFA03F7BC4305FA03FCD2
:100450004CEA040491F803C0BCF1280F06D14FF018
:10046000010C0CFA00FCC2F814C00AE091F803C0B9
:10047000BCF1480F05D14FF0010C0CFA00FCC2F89A
:1004800010C0401C0828D1D31460B1F800C0BCF1E2
:10049000FF0F34DD546800202EE000F1080C4FF00F
:1004A000010808FA0CF3B1F800C00CEA03069E42FA
:1004B00021D183004FF00F0C0CFA03F7BC4305FA6F
:1004C00003FC4CEA040491F803C0BCF1280F05D1E9
:1004D00000F1080C08FA0CF8C2F8148091F803C077
:1004E000BCF1480F07D100F1080C4FF0010808FAE1
:1004F0000CF8C2F81080401C0828CED35460BDE828
:10050000F08100BFFEE700BFFEE7704770B5002135
:1005100000230F22C47804B3154C246804F4E0646B
:10052000C4F5E064210AC1F10403CA40447804FA26
:1005300003F184781440214309010E4C0678A1553B
:10054000047804F01F050124AC4005786D11AD005E
:1005500005F1E025C5F8004109E0047804F01F0525
:100560000124AC40044D0678761145F8264070BD54
:100570000CED00E000E400E080E100E070470000E6
:1005800029B1064AD2690243044BDA6104E0034A06
:10059000D2698243014BDA617047000000100240CB
:1005A00029B1064A12690243044B1A6104E0034A66
:1005B00012698243014B1A6170470000001002402B
:1005C00029B1064A92690243044B9A6104E0034A46
:1005D00092698243014B9A6170470000001002400B
:1005E00029B1064AD2680243044BDA6004E0034AA8
:1005F000D2688243014BDA6070470000001002406D
:1006000030B500210022002400232D4D6D6805F037
:100610000C0121B1042905D0082923D105E0294D79
:10062000056022E0274D05601FE0254D6D6805F44B
:100630007012234D6D6805F48034022505EB92425B
:100640001CB9214D554305600BE01D4D6D6805F447
:1006500000351DB11C4D5543056002E0194D554351
:10066000056002E0174D056000BF00BF144D6D68C6
:1006700005F0F0010909154D6B5C0568DD4045602A
:100680000F4D6D6805F4E061090A104D6B5C45681B
:10069000DD4085600A4D6D6805F46051C90A0B4D57
:1006A0006B5C4568DD40C560054D6D6805F44041F3
:1006B000890B074D6B5CC568B5FBF3F5056130BD73
:1006C0000010024000127A0000093D0044000020A2
:1006D00054000020704710B500F002F810BD000073
:1006E0000CB50020019000903348006840F4803041
:1006F0003149086000BF3048006800F400300090C5
:100700000198401C0190009818B90198B0F5A06FAD
:10071000F1D12948006800F4003010B101200090A8
:1007200001E0002000900098012843D12348006890
:1007300040F01000214908600846006820F00300DE
:1007400008600846006840F0020008601A484068E7
:10075000194948600846406848600846406840F4C7
:10076000806048600846406820F47C104860084675
:10077000406840F4E81048600846006840F0807027
:10078000086000BF0C48006800F000700028F9D035
:100790000948406820F0030007494860084640685F
:1007A00040F00200486000BF0348406800F00C00C1
:1007B0000828F9D10CBD00000010024000200240C2
:1007C000042808D14FF0E021096941F004014FF0FD
:1007D000E022116107E04FF0E021096921F00401F6
:1007E0004FF0E022116170477047000010B51348C8
:1007F000006840F00100114908600846406810494F
:1008000008400E494860084600680E4908400B49F8
:1008100008600846006820F48020086008464068A8
:1008200020F4FE0048604FF41F008860FFF753FF7C
:100830004FF000600449086010BD00000010024045
:100840000000FFF8FFFFF6FE08ED00E010B540F2F3
:100850002551064800F0C8F930B10448001D008851
:10086000C1B2034800F05CFA10BD0000003801403E
:100870001C00002010B50446E4B901210520FFF753
:100880009FFE01218803FFF79BFE4FF4007018497B
:1008900008801820C870032088701648FFF7A6FD4E
:1008A0004FF48060124908800420C8701148FFF797
:1008B0009DFD1BE0012C19D101210820FFF780FECE
:1008C00001218803FFF77CFE402009490880182099
:1008D000C870032088700848FFF788FD802004490D
:1008E00008800420C8700448FFF780FD10BD000098
:1008F0004000002000080140000C014010B540F20B
:100900002551064800F070F930B10448001D0088F8
:10091000C1B2034800F004FA10BD000000440040DA
:100920002800002010B5044601214804FFF728FEE6
:10093000022C1AD101210420FFF742FE01214804B4
:10094000FFF71EFE0420174908801820C8700320F6
:1009500088701548FFF74AFD0820124908800420D6
:10096000C8701148FFF742FD1BE0032C19D101218B
:100970002020FFF725FE01214804FFF701FE20207B
:10098000084908801820C870032088700748FFF7BE
:100990002DFD4020034908800420C8700348FFF75C
:1009A00025FD10BD4000002000080140001401405A
:1009B00010B540F22551064800F016F930B1044850
:1009C000001D0088C1B2034800F0AAF910BD000064
:1009D000004800403400002010B50446012188047E
:1009E000FFF7CEFD042C1AD101210820FFF7E8FD06
:1009F00001218804FFF7E4FD20022849088018201F
:100A0000C870032088702648FFF7F0FC6002234975
:100A100008800420C8702248FFF7E8FC3CE0052C61
:100A20001CD101211020FFF7CBFD01218804FFF725
:100A3000C7FD4FF48060194908801820C870032052
:100A400088701848FFF7D2FC4FF400601349088003
:100A50000420C8701348FFF7C9FC1DE0062C1BD109
:100A600001212020FFF7ACFD01218804FFF7A8FD3C
:100A70004FF48070094908801820C87003208870DE
:100A80000948FFF7B3FC4FF40070044908800420C4
:100A9000C8700548FFF7AAFC10BD00004000002008
:100AA000000C0140001001400014014010B5034645
:100AB000184600F01BF90446E08808B9012010BD73
:100AC0000020FCE710B50446204600F00FF903466D
:100AD000D8889988884201D1012010BD0020FCE708
:100AE00021B1828942F40052828104E082894DF66C
:100AF000FF731A408281704710B504462048844233
:100B000009D101218803FFF76BFD00214FF48040DC
:100B1000FFF766FD32E01B48844209D101214804F9
:100B2000FFF73EFD00214FF40030FFF739FD25E0CF
:100B30001548844209D101218804FFF731FD0021C5
:100B40004FF48020FFF72CFD18E01048844209D1B3
:100B50000121C804FFF724FD00214FF40020FFF716
:100B60001FFD0BE00A48844208D101210805FFF768
:100B700017FD00214FF48010FFF712FD10BD00009B
:100B8000003801400044004000480040004C004054
:100B90000050004073B50646304600F0A7F8034603
:100BA000DD885C890FE09888A04200D10024186895
:100BB00000579DF80410884201D101207CBD601CC3
:100BC00084B2681E85B2002DEDDC0020F6E70246F7
:100BD0000020B1F5007F00D100BF13880B400BB19E
:100BE000012000E00020704770B502460024002379
:100BF0000025002040F66A16B14200D100BFC1F3C3
:100C0000421501F01F03012606FA03F3012D02D15C
:100C10009689334006E0022D02D1168A334001E066
:100C2000968A33400C12012606FA04F416883440E2
:100C300013B10CB1012000E0002070BD30B50446B6
:100C40000025204600F052F80346D88800280EDD23
:100C500058899988884201D100205881598918689B
:100C600045565889401C5881D888401ED880E8B223
:100C700030BDF0B507460D46164600243846FFF74E
:100C800015FF40B90A213846FFF784FF28B93846D6
:100C9000FFF718FF08B90020F0BD0BE03846FFF75A
:100CA000CDFF2855285D0A2802D1601C84B204E0DB
:100CB000601C84B2701EA042F0DC00BF00202855EA
:100CC0002046E9E70146064A914200D10020054A44
:100CD000914200D10120044A914200D10220704784
:100CE0000038014000440040004800400146064AE8
:100CF000914200D10548064A914200D10548064A72
:100D0000914200D105487047003801401C00002086
:100D1000004400402800002000480040340000202B
:100D200010B5C28883889A420FDA028983889A4272
:100D300001D1002202814AB2048903681A5502894E
:100D4000521C0281C288521CC28010BDF0B50346FD
:100D5000002400260025002040F66A17B94200D181
:100D600000BF1846C1F3421401F01F06012707FA1D
:100D700006F5012C01D10C3004E0022C01D1103019
:100D800000E014301AB107682F43076002E00768DB
:100D9000AF430760F0BD00002DE9F04786B005467F
:100DA0000E460024A24600BFA1460027B08900B12C
:100DB00000BF2F462C8A4CF6FF700440F088044395
:100DC0002C82AC894EF6F3100440B0883189084378
:100DD000718908430443AC81AC8A4FF6FF4004405C
:100DE000B0890443AC8201A8FFF70AFC1F48874280
:100DF00002D1DDF810A001E0DDF80CA0A88900F414
:100E0000004040B10AEBCA0000EB0A10316849000B
:100E1000B0FBF1F807E00AEBCA0000EB0A103168FA
:100E20008900B0FBF1F86420B8FBF0F00401200960
:100E3000642101FB1089A88900F4004040B13220F0
:100E400000EBC900B0FBF1F000F00700044308E03C
:100E5000322000EB09106421B0FBF1F000F00F002C
:100E600004432C8106B0BDE8F08700000038014043
:100E700013B5044600BF80212046FFF7A8FE0028D6
:100E8000F9D09DF80400A0801CBD000070B586B0AC
:100E900004460D46164602963348844212D128462F
:100EA000FFF7E8FC25208DF804000020ADF81400C1
:100EB0000C20ADF812000020ADF81000ADF80E00C7
:100EC000ADF80C002948844212D12846FFF72AFDCC
:100ED00026208DF804000020ADF814000C20ADF899
:100EE00012000020ADF81000ADF80E00ADF80C00B7
:100EF0001F48844212D12846FFF76EFD27208DF847
:100F000004000020ADF814000C20ADF81200002001
:100F1000ADF81000ADF80E00ADF80C000021204631
:100F2000FFF7DEFD2046FFF7E7FD02A92046FFF7A9
:100F300033FF01212046FFF7D3FD012240F2255166
:100F40002046FFF703FF01208DF8070000208DF8F1
:100F500005002046FFF7B6FE8DF8060001A8FFF752
:100F6000D5FA06B070BD00000038014000440040D2
:100F70000048004000BFFEE710B56FF00400FFF727
:100F80001FFC0A4800680A49B0FBF1F009490870E3
:100F90000846007800EB4001C1EBC0104FF6FF712E
:100FA00001EAC0000449088010BD000000000020D4
:100FB00000127A00140000201600002070B50446CC
:100FC0000D46E1B20248FFF753FF204670BD000016
:100FD000003801409AB000BFFFF7CEFF4FF4E13276
:100FE00000210748FFF752FF09E0642201A90448E5
:100FF000FFF73FFE18B101A902A0FFF70BF9F4E7D4
:101000000038014025730D0A000000002C10000874
:1010100000000020580000006C0100088410000847
:1010200058000020C00600008801000800A24A0401
:101030000000000000000000010203040607080988
:101040000000000000000000580000202000000008
:1010500000000000780000202000000000000000D8
:1010600098000020200000000000000000000000A8
:10107000000000000102030401020304060708093E
:041080000204060858
:0400000508000131BD
:00000001FF
